{
  "contractName": "CourseRegistry",
  "abi": [
    {
      "inputs": [
        {
          "internalType": "address",
          "name": "_institutionRegistry",
          "type": "address"
        },
        {
          "internalType": "address",
          "name": "_oracleAddress",
          "type": "address"
        }
      ],
      "stateMutability": "nonpayable",
      "type": "constructor"
    },
    {
      "anonymous": false,
      "inputs": [
        {
          "indexed": false,
          "internalType": "uint256",
          "name": "courseId",
          "type": "uint256"
        },
        {
          "indexed": false,
          "internalType": "uint256",
          "name": "courseIdToRecognize",
          "type": "uint256"
        }
      ],
      "name": "ApproveCourseSuccessEvent",
      "type": "event"
    },
    {
      "anonymous": false,
      "inputs": [],
      "name": "CheckApproveFnTimeoutEvent",
      "type": "event"
    },
    {
      "anonymous": false,
      "inputs": [
        {
          "indexed": false,
          "internalType": "uint256",
          "name": "courseId",
          "type": "uint256"
        },
        {
          "indexed": false,
          "internalType": "uint256",
          "name": "courseIdToRecognize",
          "type": "uint256"
        }
      ],
      "name": "CheckDuplicateApproveEvent",
      "type": "event"
    },
    {
      "anonymous": false,
      "inputs": [
        {
          "indexed": false,
          "internalType": "uint256",
          "name": "courseId",
          "type": "uint256"
        },
        {
          "indexed": false,
          "internalType": "address",
          "name": "owner",
          "type": "address"
        },
        {
          "indexed": false,
          "internalType": "string",
          "name": "courseName",
          "type": "string"
        },
        {
          "indexed": false,
          "internalType": "string",
          "name": "courseFileHash",
          "type": "string"
        }
      ],
      "name": "CourseRegisterEvent",
      "type": "event"
    },
    {
      "inputs": [
        {
          "internalType": "uint256",
          "name": "",
          "type": "uint256"
        }
      ],
      "name": "courses",
      "outputs": [
        {
          "internalType": "uint256",
          "name": "id",
          "type": "uint256"
        },
        {
          "internalType": "address",
          "name": "owner",
          "type": "address"
        },
        {
          "internalType": "string",
          "name": "courseName",
          "type": "string"
        },
        {
          "internalType": "string",
          "name": "courseFileHash",
          "type": "string"
        }
      ],
      "stateMutability": "view",
      "type": "function",
      "constant": true
    },
    {
      "inputs": [],
      "name": "institutionRegistry",
      "outputs": [
        {
          "internalType": "contract InstitutionRegistry",
          "name": "",
          "type": "address"
        }
      ],
      "stateMutability": "view",
      "type": "function",
      "constant": true
    },
    {
      "inputs": [],
      "name": "oracleAddress",
      "outputs": [
        {
          "internalType": "address",
          "name": "",
          "type": "address"
        }
      ],
      "stateMutability": "view",
      "type": "function",
      "constant": true
    },
    {
      "inputs": [
        {
          "internalType": "string",
          "name": "courseName",
          "type": "string"
        },
        {
          "internalType": "string",
          "name": "courseFileHash",
          "type": "string"
        }
      ],
      "name": "registerCourse",
      "outputs": [
        {
          "components": [
            {
              "internalType": "uint256",
              "name": "id",
              "type": "uint256"
            },
            {
              "internalType": "address",
              "name": "owner",
              "type": "address"
            },
            {
              "internalType": "string",
              "name": "courseName",
              "type": "string"
            },
            {
              "internalType": "string",
              "name": "courseFileHash",
              "type": "string"
            },
            {
              "internalType": "uint256[]",
              "name": "recognizingCourses",
              "type": "uint256[]"
            }
          ],
          "internalType": "struct CourseRegistry.Course",
          "name": "",
          "type": "tuple"
        }
      ],
      "stateMutability": "nonpayable",
      "type": "function"
    },
    {
      "inputs": [
        {
          "internalType": "uint256",
          "name": "courseId",
          "type": "uint256"
        },
        {
          "internalType": "uint256",
          "name": "courseIdToRecognize",
          "type": "uint256"
        }
      ],
      "name": "approveCourse",
      "outputs": [],
      "stateMutability": "nonpayable",
      "type": "function"
    },
    {
      "inputs": [
        {
          "internalType": "bool",
          "name": "isDuplicate",
          "type": "bool"
        }
      ],
      "name": "deliverResultIsDuplicate",
      "outputs": [],
      "stateMutability": "nonpayable",
      "type": "function"
    },
    {
      "inputs": [],
      "name": "timeoutApproveProcess",
      "outputs": [],
      "stateMutability": "nonpayable",
      "type": "function"
    },
    {
      "inputs": [
        {
          "internalType": "uint256",
          "name": "from",
          "type": "uint256"
        },
        {
          "internalType": "uint256",
          "name": "to",
          "type": "uint256"
        }
      ],
      "name": "getCourses",
      "outputs": [
        {
          "components": [
            {
              "internalType": "uint256",
              "name": "id",
              "type": "uint256"
            },
            {
              "internalType": "address",
              "name": "owner",
              "type": "address"
            },
            {
              "internalType": "string",
              "name": "courseName",
              "type": "string"
            },
            {
              "internalType": "string",
              "name": "courseFileHash",
              "type": "string"
            },
            {
              "internalType": "uint256[]",
              "name": "recognizingCourses",
              "type": "uint256[]"
            }
          ],
          "internalType": "struct CourseRegistry.Course[]",
          "name": "",
          "type": "tuple[]"
        }
      ],
      "stateMutability": "view",
      "type": "function",
      "constant": true
    }
  ],
  "bytecode": "0x60806040526000600560006101000a81548160ff0219169083151502179055503480156200002c57600080fd5b5060405162001de438038062001de48339818101604052810190620000529190620000f2565b816000806101000a81548173ffffffffffffffffffffffffffffffffffffffff021916908373ffffffffffffffffffffffffffffffffffffffff16021790555080600160006101000a81548173ffffffffffffffffffffffffffffffffffffffff021916908373ffffffffffffffffffffffffffffffffffffffff160217905550505062000181565b600081519050620000ec8162000167565b92915050565b600080604083850312156200010657600080fd5b60006200011685828601620000db565b92505060206200012985828601620000db565b9150509250929050565b6000620001408262000147565b9050919050565b600073ffffffffffffffffffffffffffffffffffffffff82169050919050565b620001728162000133565b81146200017e57600080fd5b50565b611c5380620001916000396000f3fe608060405234801561001057600080fd5b50600436106100885760003560e01c8063a89ae4ba1161005b578063a89ae4ba1461012a578063c2776fc814610148578063c3b5c98b14610178578063de6a17581461018257610088565b80630fd88c7a1461008d57806318db3b27146100bd5780631b1fcb04146100d957806396f979d2146100f7575b600080fd5b6100a760048036038101906100a29190611269565b61019e565b6040516100b4919061189f565b60405180910390f35b6100d760048036038101906100d29190611307565b610558565b005b6100e1610822565b6040516100ee91906117c4565b60405180910390f35b610111600480360381019061010c91906112de565b610846565b60405161012194939291906118c1565b60405180910390f35b6101326109b6565b60405161013f9190611787565b60405180910390f35b610162600480360381019061015d9190611307565b6109dc565b60405161016f91906117a2565b60405180910390f35b610180610d7a565b005b61019c60048036038101906101979190611217565b610e76565b005b6101a6611059565b60008060009054906101000a900473ffffffffffffffffffffffffffffffffffffffff1673ffffffffffffffffffffffffffffffffffffffff166383c0e354336040518263ffffffff1660e01b81526004016102029190611787565b60206040518083038186803b15801561021a57600080fd5b505afa15801561022e573d6000803e3d6000fd5b505050506040513d601f19601f820116820180604052508101906102529190611240565b905080610294576040517f08c379a000000000000000000000000000000000000000000000000000000000815260040161028b906117ff565b60405180910390fd5b600086869050141580156102ac575060008484905014155b6102eb576040517f08c379a00000000000000000000000000000000000000000000000000000000081526004016102e29061185f565b60405180910390fd5b60006040518060a0016040528060028054905081526020013373ffffffffffffffffffffffffffffffffffffffff16815260200188888080601f016020809104026020016040519081016040528093929190818152602001838380828437600081840152601f19601f82011690508083019250505050505050815260200186868080601f016020809104026020016040519081016040528093929190818152602001838380828437600081840152601f19601f820116905080830192505050505050508152602001600067ffffffffffffffff8111156103f4577f4e487b7100000000000000000000000000000000000000000000000000000000600052604160045260246000fd5b6040519080825280602002602001820160405280156104225781602001602082028036833780820191505090505b50815250905060028190806001815401808255809150506001900390600052602060002090600502016000909190919091506000820151816000015560208201518160010160006101000a81548173ffffffffffffffffffffffffffffffffffffffff021916908373ffffffffffffffffffffffffffffffffffffffff16021790555060408201518160020190805190602001906104c192919061109e565b5060608201518160030190805190602001906104de92919061109e565b5060808201518160040190805190602001906104fb929190611124565b5050507fa69a0b29c66bd894f677b5bc26c32a1ffe414be147e0dd21ecbc88f56989d55d816000015182602001518360400151846060015160405161054394939291906118c1565b60405180910390a18092505050949350505050565b60008060009054906101000a900473ffffffffffffffffffffffffffffffffffffffff1673ffffffffffffffffffffffffffffffffffffffff166383c0e354336040518263ffffffff1660e01b81526004016105b49190611787565b60206040518083038186803b1580156105cc57600080fd5b505afa1580156105e0573d6000803e3d6000fd5b505050506040513d601f19601f820116820180604052508101906106049190611240565b905080610646576040517f08c379a000000000000000000000000000000000000000000000000000000000815260040161063d906117ff565b60405180910390fd5b3373ffffffffffffffffffffffffffffffffffffffff1660028481548110610697577f4e487b7100000000000000000000000000000000000000000000000000000000600052603260045260246000fd5b906000526020600020906005020160010160009054906101000a900473ffffffffffffffffffffffffffffffffffffffff1673ffffffffffffffffffffffffffffffffffffffff161461071f576040517f08c379a00000000000000000000000000000000000000000000000000000000081526004016107169061181f565b60405180910390fd5b600560009054906101000a900460ff161561076f576040517f08c379a00000000000000000000000000000000000000000000000000000000081526004016107669061187f565b60405180910390fd5b6001600560006101000a81548160ff021916908315150217905550604051806040016040528084815260200183815250600360008201518160000155602082015181600101559050507f085bc3a9d65742febd8cee3384f1c58642d32cc0256bd88be996413039df733583836040516107e9929190611914565b60405180910390a17fe753b2ece1e6cee41bddbda28b3a7e94948ff1b6f694c2bdb78b50be1884f96260405160405180910390a1505050565b60008054906101000a900473ffffffffffffffffffffffffffffffffffffffff1681565b6002818154811061085657600080fd5b90600052602060002090600502016000915090508060000154908060010160009054906101000a900473ffffffffffffffffffffffffffffffffffffffff16908060020180546108a590611b05565b80601f01602080910402602001604051908101604052809291908181526020018280546108d190611b05565b801561091e5780601f106108f35761010080835404028352916020019161091e565b820191906000526020600020905b81548152906001019060200180831161090157829003601f168201915b50505050509080600301805461093390611b05565b80601f016020809104026020016040519081016040528092919081815260200182805461095f90611b05565b80156109ac5780601f10610981576101008083540402835291602001916109ac565b820191906000526020600020905b81548152906001019060200180831161098f57829003601f168201915b5050505050905084565b600160009054906101000a900473ffffffffffffffffffffffffffffffffffffffff1681565b6060600083101580156109ef5750828210155b610a2e576040517f08c379a0000000000000000000000000000000000000000000000000000000008152600401610a259061185f565b60405180910390fd5b60008383610a3c9190611a32565b9050600280549050811115610a545760028054905090505b60008167ffffffffffffffff811115610a96577f4e487b7100000000000000000000000000000000000000000000000000000000600052604160045260246000fd5b604051908082528060200260200182016040528015610acf57816020015b610abc611059565b815260200190600190039081610ab45790505b50905060005b82811015610d6e5760028187610aeb91906119dc565b81548110610b22577f4e487b7100000000000000000000000000000000000000000000000000000000600052603260045260246000fd5b90600052602060002090600502016040518060a0016040529081600082015481526020016001820160009054906101000a900473ffffffffffffffffffffffffffffffffffffffff1673ffffffffffffffffffffffffffffffffffffffff1673ffffffffffffffffffffffffffffffffffffffff168152602001600282018054610bab90611b05565b80601f0160208091040260200160405190810160405280929190818152602001828054610bd790611b05565b8015610c245780601f10610bf957610100808354040283529160200191610c24565b820191906000526020600020905b815481529060010190602001808311610c0757829003601f168201915b50505050508152602001600382018054610c3d90611b05565b80601f0160208091040260200160405190810160405280929190818152602001828054610c6990611b05565b8015610cb65780601f10610c8b57610100808354040283529160200191610cb6565b820191906000526020600020905b815481529060010190602001808311610c9957829003601f168201915b5050505050815260200160048201805480602002602001604051908101604052809291908181526020018280548015610d0e57602002820191906000526020600020905b815481526020019060010190808311610cfa575b505050505081525050828281518110610d50577f4e487b7100000000000000000000000000000000000000000000000000000000600052603260045260246000fd5b60200260200101819052508080610d6690611b37565b915050610ad5565b50809250505092915050565b600160009054906101000a900473ffffffffffffffffffffffffffffffffffffffff1673ffffffffffffffffffffffffffffffffffffffff163373ffffffffffffffffffffffffffffffffffffffff1614610e0a576040517f08c379a0000000000000000000000000000000000000000000000000000000008152600401610e019061183f565b60405180910390fd5b600560009054906101000a900460ff16610e59576040517f08c379a0000000000000000000000000000000000000000000000000000000008152600401610e50906117df565b60405180910390fd5b6000600560006101000a81548160ff021916908315150217905550565b600160009054906101000a900473ffffffffffffffffffffffffffffffffffffffff1673ffffffffffffffffffffffffffffffffffffffff163373ffffffffffffffffffffffffffffffffffffffff1614610f06576040517f08c379a0000000000000000000000000000000000000000000000000000000008152600401610efd9061183f565b60405180910390fd5b600560009054906101000a900460ff16610f55576040517f08c379a0000000000000000000000000000000000000000000000000000000008152600401610f4c906117df565b60405180910390fd5b8015610f7b576000600560006101000a81548160ff021916908315150217905550611056565b600260036000015481548110610fba577f4e487b7100000000000000000000000000000000000000000000000000000000600052603260045260246000fd5b906000526020600020906005020160040160036001015490806001815401808255809150506001900390600052602060002001600090919091909150557fc6d81938d823af42706e9bb859b01b073d823c84e85b3d90cbe347bd6509cd04600360000154600360010154604051611032929190611914565b60405180910390a16000600560006101000a81548160ff0219169083151502179055505b50565b6040518060a0016040528060008152602001600073ffffffffffffffffffffffffffffffffffffffff1681526020016060815260200160608152602001606081525090565b8280546110aa90611b05565b90600052602060002090601f0160209004810192826110cc5760008555611113565b82601f106110e557805160ff1916838001178555611113565b82800160010185558215611113579182015b828111156111125782518255916020019190600101906110f7565b5b5090506111209190611171565b5090565b828054828255906000526020600020908101928215611160579160200282015b8281111561115f578251825591602001919060010190611144565b5b50905061116d9190611171565b5090565b5b8082111561118a576000816000905550600101611172565b5090565b60008135905061119d81611bef565b92915050565b6000815190506111b281611bef565b92915050565b60008083601f8401126111ca57600080fd5b8235905067ffffffffffffffff8111156111e357600080fd5b6020830191508360018202830111156111fb57600080fd5b9250929050565b60008135905061121181611c06565b92915050565b60006020828403121561122957600080fd5b60006112378482850161118e565b91505092915050565b60006020828403121561125257600080fd5b6000611260848285016111a3565b91505092915050565b6000806000806040858703121561127f57600080fd5b600085013567ffffffffffffffff81111561129957600080fd5b6112a5878288016111b8565b9450945050602085013567ffffffffffffffff8111156112c457600080fd5b6112d0878288016111b8565b925092505092959194509250565b6000602082840312156112f057600080fd5b60006112fe84828501611202565b91505092915050565b6000806040838503121561131a57600080fd5b600061132885828601611202565b925050602061133985828601611202565b9150509250929050565b600061134f8383611661565b905092915050565b60006113638383611769565b60208301905092915050565b61137881611a66565b82525050565b61138781611a66565b82525050565b60006113988261195d565b6113a28185611998565b9350836020820285016113b48561193d565b8060005b858110156113f057848403895281516113d18582611343565b94506113dc8361197e565b925060208a019950506001810190506113b8565b50829750879550505050505092915050565b600061140d82611968565b61141781856119a9565b93506114228361194d565b8060005b8381101561145357815161143a8882611357565b97506114458361198b565b925050600181019050611426565b5085935050505092915050565b61146981611aae565b82525050565b600061147a82611973565b61148481856119ba565b9350611494818560208601611ad2565b61149d81611bde565b840191505092915050565b60006114b382611973565b6114bd81856119cb565b93506114cd818560208601611ad2565b6114d681611bde565b840191505092915050565b60006114ee6014836119cb565b91507f5f5f5f4e6f7420696e2070726f636573735f5f5f0000000000000000000000006000830152602082019050919050565b600061152e6020836119cb565b91507f5f5f5f496e737469747574696f6e206e6f7420726567697374657265645f5f5f6000830152602082019050919050565b600061156e6016836119cb565b91507f5f5f5f4e6f7420636f75727365206f776e65725f5f5f000000000000000000006000830152602082019050919050565b60006115ae601a836119cb565b91507f5f5f5f4f6e6c79206f7261636c652063616e2063616c6c5f5f5f0000000000006000830152602082019050919050565b60006115ee6018836119cb565b91507f5f5f5f496e76616c696420506172616d61746572735f5f5f00000000000000006000830152602082019050919050565b600061162e6010836119cb565b91507f5f5f5f496e2070726f636573735f5f5f000000000000000000000000000000006000830152602082019050919050565b600060a0830160008301516116796000860182611769565b50602083015161168c602086018261136f565b50604083015184820360408601526116a4828261146f565b915050606083015184820360608601526116be828261146f565b915050608083015184820360808601526116d88282611402565b9150508091505092915050565b600060a0830160008301516116fd6000860182611769565b506020830151611710602086018261136f565b5060408301518482036040860152611728828261146f565b91505060608301518482036060860152611742828261146f565b9150506080830151848203608086015261175c8282611402565b9150508091505092915050565b61177281611aa4565b82525050565b61178181611aa4565b82525050565b600060208201905061179c600083018461137e565b92915050565b600060208201905081810360008301526117bc818461138d565b905092915050565b60006020820190506117d96000830184611460565b92915050565b600060208201905081810360008301526117f8816114e1565b9050919050565b6000602082019050818103600083015261181881611521565b9050919050565b6000602082019050818103600083015261183881611561565b9050919050565b60006020820190508181036000830152611858816115a1565b9050919050565b60006020820190508181036000830152611878816115e1565b9050919050565b6000602082019050818103600083015261189881611621565b9050919050565b600060208201905081810360008301526118b981846116e5565b905092915050565b60006080820190506118d66000830187611778565b6118e3602083018661137e565b81810360408301526118f581856114a8565b9050818103606083015261190981846114a8565b905095945050505050565b60006040820190506119296000830185611778565b6119366020830184611778565b9392505050565b6000819050602082019050919050565b6000819050602082019050919050565b600081519050919050565b600081519050919050565b600081519050919050565b6000602082019050919050565b6000602082019050919050565b600082825260208201905092915050565b600082825260208201905092915050565b600082825260208201905092915050565b600082825260208201905092915050565b60006119e782611aa4565b91506119f283611aa4565b9250827fffffffffffffffffffffffffffffffffffffffffffffffffffffffffffffffff03821115611a2757611a26611b80565b5b828201905092915050565b6000611a3d82611aa4565b9150611a4883611aa4565b925082821015611a5b57611a5a611b80565b5b828203905092915050565b6000611a7182611a84565b9050919050565b60008115159050919050565b600073ffffffffffffffffffffffffffffffffffffffff82169050919050565b6000819050919050565b6000611ab982611ac0565b9050919050565b6000611acb82611a84565b9050919050565b60005b83811015611af0578082015181840152602081019050611ad5565b83811115611aff576000848401525b50505050565b60006002820490506001821680611b1d57607f821691505b60208210811415611b3157611b30611baf565b5b50919050565b6000611b4282611aa4565b91507fffffffffffffffffffffffffffffffffffffffffffffffffffffffffffffffff821415611b7557611b74611b80565b5b600182019050919050565b7f4e487b7100000000000000000000000000000000000000000000000000000000600052601160045260246000fd5b7f4e487b7100000000000000000000000000000000000000000000000000000000600052602260045260246000fd5b6000601f19601f8301169050919050565b611bf881611a78565b8114611c0357600080fd5b50565b611c0f81611aa4565b8114611c1a57600080fd5b5056fea2646970667358221220e6d3d0f7d159e0b33241b907e6f4a61ead70f495ef69b028ab3d80a48c32cbe764736f6c63430008000033",
  "immutableReferences": {},
  "source": "// SPDX-License-Identifier: UNLICENSED\r\npragma solidity ^0.8.0;\r\n\r\nimport \"./InstitutionRegistry.sol\";\r\n\r\ncontract CourseRegistry {\r\n    InstitutionRegistry public institutionRegistry;\r\n    address public oracleAddress;\r\n\r\n    constructor(address _institutionRegistry, address _oracleAddress) {\r\n        institutionRegistry = InstitutionRegistry(_institutionRegistry);\r\n        oracleAddress = _oracleAddress;\r\n    }\r\n\r\n    event CheckDuplicateApproveEvent(uint courseId, uint courseIdToRecognize);\r\n    event CourseRegisterEvent(\r\n        uint courseId,\r\n        address owner,\r\n        string courseName,\r\n        string courseFileHash\r\n    );\r\n\r\n    event CheckApproveFnTimeoutEvent();\r\n    event ApproveCourseSuccessEvent(uint courseId, uint courseIdToRecognize);\r\n\r\n    struct Course {\r\n        uint id;\r\n        address owner;\r\n        string courseName;\r\n        string courseFileHash;\r\n        uint[] recognizingCourses;\r\n    }\r\n    struct RecognizingDto {\r\n        uint courseId;\r\n        uint courseIdToRecognize;\r\n    }\r\n    //all courses list\r\n    Course[] public courses;\r\n    //store the current recognizing course id and the course id to recognize\r\n    RecognizingDto currRecognizing;\r\n    //if in recognizing process, lock the approve function in case of reentrancy\r\n    bool isInUse = false;\r\n\r\n    function registerCourse(\r\n        string calldata courseName,\r\n        string calldata courseFileHash\r\n    ) external returns (Course memory) {\r\n        bool isRegistered = institutionRegistry.isInstitutionRegistered(\r\n            msg.sender\r\n        );\r\n        require(isRegistered, \"___Institution not registered___\");\r\n        require(\r\n            bytes(courseName).length != 0 && bytes(courseFileHash).length != 0,\r\n            \"___Invalid Paramaters___\"\r\n        );\r\n\r\n        Course memory newCourse = Course(\r\n            courses.length,\r\n            msg.sender,\r\n            courseName,\r\n            courseFileHash,\r\n            new uint[](0)\r\n        );\r\n        courses.push(newCourse);\r\n        emit CourseRegisterEvent(\r\n            newCourse.id,\r\n            newCourse.owner,\r\n            newCourse.courseName,\r\n            newCourse.courseFileHash\r\n        );\r\n        return newCourse;\r\n    }\r\n\r\n    function approveCourse(uint courseId, uint courseIdToRecognize) external {\r\n        bool isRegistered = institutionRegistry.isInstitutionRegistered(\r\n            msg.sender\r\n        );\r\n        require(isRegistered, \"___Institution not registered___\");\r\n        //need this course belongs to this institution\r\n        require(\r\n            courses[courseId].owner == msg.sender,\r\n            \"___Not course owner___\"\r\n        );\r\n        require(!isInUse, \"___In process___\");\r\n        //lock the function\r\n        isInUse = true;\r\n        //store the course id and the course id to recognize\r\n        currRecognizing = RecognizingDto(courseId, courseIdToRecognize);\r\n        //inform the oracle to check if the course is already recognized\r\n        emit CheckDuplicateApproveEvent(courseId, courseIdToRecognize);\r\n        //inform the oracle to timeout the process after some time\r\n        emit CheckApproveFnTimeoutEvent();\r\n    }\r\n\r\n    function deliverResultIsDuplicate(bool isDuplicate) external {\r\n        require(msg.sender == oracleAddress, \"___Only oracle can call___\");\r\n        require(isInUse, \"___Not in process___\");\r\n        if (isDuplicate) {\r\n            isInUse = false;\r\n        } else {\r\n            //if not duplicate, add the course id to the recognizing course's recognizingCourses array\r\n            courses[currRecognizing.courseId].recognizingCourses.push(\r\n                currRecognizing.courseIdToRecognize\r\n            );\r\n\r\n            //inform the oracle the process is done and close the timer for this process\r\n            emit ApproveCourseSuccessEvent(\r\n                currRecognizing.courseId,\r\n                currRecognizing.courseIdToRecognize\r\n            );\r\n\r\n            isInUse = false;\r\n        }\r\n    }\r\n\r\n    //if timeout, oracle will call this function to unlock the approve function\r\n    function timeoutApproveProcess() public {\r\n        require(msg.sender == oracleAddress, \"___Only oracle can call___\");\r\n        require(isInUse, \"___Not in process___\");\r\n        //if timeout, unlock the function\r\n        isInUse = false;\r\n    }\r\n\r\n    function getCourses(\r\n        uint from,\r\n        uint to\r\n    ) public view returns (Course[] memory) {\r\n        require(from >= 0 && to >= from, \"___Invalid Paramaters___\");\r\n        uint amount = to - from;\r\n        //if amount is greater than the length of the array, return the whole array\r\n        if (amount > courses.length) {\r\n            amount = courses.length;\r\n        }\r\n\r\n        Course[] memory _courses = new Course[](amount);\r\n\r\n        for (uint i = 0; i < amount; i++) {\r\n            _courses[i] = courses[from + i];\r\n        }\r\n        return _courses;\r\n    }\r\n}\r\n",
  "sourcePath": "C:\\Users\\98611\\Desktop\\test\\credit-transfer-dapp\\contracts\\contracts\\CourseRegistry.sol",
  "compiler": {
    "name": "solc",
    "version": "0.8.0+commit.c7dfd78e.Emscripten.clang"
  },
  "schemaVersion": "3.4.14",
  "updatedAt": "2023-07-19T18:42:27.257Z",
  "networkType": "ethereum",
  "devdoc": {
    "kind": "dev",
    "methods": {},
    "version": 1
  },
  "userdoc": {
    "kind": "user",
    "methods": {},
    "version": 1
  }
}