{
  "contractName": "CourseRegistry",
  "abi": [
    {
      "inputs": [
        {
          "internalType": "address",
          "name": "_institutionRegistry",
          "type": "address"
        },
        {
          "internalType": "address",
          "name": "_oracleAddress",
          "type": "address"
        }
      ],
      "stateMutability": "nonpayable",
      "type": "constructor"
    },
    {
      "anonymous": false,
      "inputs": [
        {
          "indexed": false,
          "internalType": "uint256",
          "name": "courseId",
          "type": "uint256"
        },
        {
          "indexed": false,
          "internalType": "uint256",
          "name": "courseIdToRecognize",
          "type": "uint256"
        }
      ],
      "name": "ApproveCourseSuccessEvent",
      "type": "event"
    },
    {
      "anonymous": false,
      "inputs": [],
      "name": "CheckApproveFnTimeoutEvent",
      "type": "event"
    },
    {
      "anonymous": false,
      "inputs": [
        {
          "indexed": false,
          "internalType": "uint256",
          "name": "courseId",
          "type": "uint256"
        },
        {
          "indexed": false,
          "internalType": "uint256",
          "name": "courseIdToRecognize",
          "type": "uint256"
        }
      ],
      "name": "CheckDuplicateApproveEvent",
      "type": "event"
    },
    {
      "anonymous": false,
      "inputs": [
        {
          "indexed": false,
          "internalType": "uint256",
          "name": "courseId",
          "type": "uint256"
        },
        {
          "indexed": false,
          "internalType": "address",
          "name": "owner",
          "type": "address"
        },
        {
          "indexed": false,
          "internalType": "string",
          "name": "courseName",
          "type": "string"
        },
        {
          "indexed": false,
          "internalType": "string",
          "name": "courseFileHash",
          "type": "string"
        }
      ],
      "name": "CourseRegisterEvent",
      "type": "event"
    },
    {
      "inputs": [
        {
          "internalType": "uint256",
          "name": "",
          "type": "uint256"
        }
      ],
      "name": "courses",
      "outputs": [
        {
          "internalType": "uint256",
          "name": "id",
          "type": "uint256"
        },
        {
          "internalType": "address",
          "name": "owner",
          "type": "address"
        },
        {
          "internalType": "string",
          "name": "courseName",
          "type": "string"
        },
        {
          "internalType": "string",
          "name": "courseFileHash",
          "type": "string"
        }
      ],
      "stateMutability": "view",
      "type": "function",
      "constant": true
    },
    {
      "inputs": [],
      "name": "institutionRegistry",
      "outputs": [
        {
          "internalType": "contract InstitutionRegistry",
          "name": "",
          "type": "address"
        }
      ],
      "stateMutability": "view",
      "type": "function",
      "constant": true
    },
    {
      "inputs": [],
      "name": "oracleAddress",
      "outputs": [
        {
          "internalType": "address",
          "name": "",
          "type": "address"
        }
      ],
      "stateMutability": "view",
      "type": "function",
      "constant": true
    },
    {
      "inputs": [
        {
          "internalType": "string",
          "name": "courseName",
          "type": "string"
        },
        {
          "internalType": "string",
          "name": "courseFileHash",
          "type": "string"
        }
      ],
      "name": "registerCourse",
      "outputs": [
        {
          "components": [
            {
              "internalType": "uint256",
              "name": "id",
              "type": "uint256"
            },
            {
              "internalType": "address",
              "name": "owner",
              "type": "address"
            },
            {
              "internalType": "string",
              "name": "courseName",
              "type": "string"
            },
            {
              "internalType": "string",
              "name": "courseFileHash",
              "type": "string"
            },
            {
              "internalType": "uint256[]",
              "name": "recognizingCourses",
              "type": "uint256[]"
            }
          ],
          "internalType": "struct CourseRegistry.Course",
          "name": "",
          "type": "tuple"
        }
      ],
      "stateMutability": "nonpayable",
      "type": "function"
    },
    {
      "inputs": [
        {
          "internalType": "uint256",
          "name": "courseId",
          "type": "uint256"
        },
        {
          "internalType": "uint256",
          "name": "courseIdToRecognize",
          "type": "uint256"
        }
      ],
      "name": "approveCourse",
      "outputs": [],
      "stateMutability": "nonpayable",
      "type": "function"
    },
    {
      "inputs": [
        {
          "internalType": "bool",
          "name": "isDuplicate",
          "type": "bool"
        }
      ],
      "name": "deliverResultIsDuplicate",
      "outputs": [],
      "stateMutability": "nonpayable",
      "type": "function"
    },
    {
      "inputs": [
        {
          "internalType": "uint256",
          "name": "from",
          "type": "uint256"
        },
        {
          "internalType": "uint256",
          "name": "to",
          "type": "uint256"
        }
      ],
      "name": "getCourses",
      "outputs": [
        {
          "components": [
            {
              "internalType": "uint256",
              "name": "id",
              "type": "uint256"
            },
            {
              "internalType": "address",
              "name": "owner",
              "type": "address"
            },
            {
              "internalType": "string",
              "name": "courseName",
              "type": "string"
            },
            {
              "internalType": "string",
              "name": "courseFileHash",
              "type": "string"
            },
            {
              "internalType": "uint256[]",
              "name": "recognizingCourses",
              "type": "uint256[]"
            }
          ],
          "internalType": "struct CourseRegistry.Course[]",
          "name": "",
          "type": "tuple[]"
        }
      ],
      "stateMutability": "view",
      "type": "function",
      "constant": true
    }
  ],
  "bytecode": "0x60806040526000600560006101000a81548160ff0219169083151502179055503480156200002c57600080fd5b5060405162001ca638038062001ca68339818101604052810190620000529190620000f2565b816000806101000a81548173ffffffffffffffffffffffffffffffffffffffff021916908373ffffffffffffffffffffffffffffffffffffffff16021790555080600160006101000a81548173ffffffffffffffffffffffffffffffffffffffff021916908373ffffffffffffffffffffffffffffffffffffffff160217905550505062000181565b600081519050620000ec8162000167565b92915050565b600080604083850312156200010657600080fd5b60006200011685828601620000db565b92505060206200012985828601620000db565b9150509250929050565b6000620001408262000147565b9050919050565b600073ffffffffffffffffffffffffffffffffffffffff82169050919050565b620001728162000133565b81146200017e57600080fd5b50565b611b1580620001916000396000f3fe608060405234801561001057600080fd5b506004361061007d5760003560e01c806396f979d21161005b57806396f979d2146100ec578063a89ae4ba1461011f578063c2776fc81461013d578063de6a17581461016d5761007d565b80630fd88c7a1461008257806318db3b27146100b25780631b1fcb04146100ce575b600080fd5b61009c6004803603810190610097919061112b565b610189565b6040516100a99190611761565b60405180910390f35b6100cc60048036038101906100c791906111c9565b61053c565b005b6100d6610801565b6040516100e39190611686565b60405180910390f35b610106600480360381019061010191906111a0565b610825565b6040516101169493929190611783565b60405180910390f35b610127610995565b6040516101349190611649565b60405180910390f35b610157600480360381019061015291906111c9565b6109bb565b6040516101649190611664565b60405180910390f35b610187600480360381019061018291906110d9565b610d59565b005b610191610f1b565b60008054906101000a900473ffffffffffffffffffffffffffffffffffffffff1673ffffffffffffffffffffffffffffffffffffffff166383c0e354336040518263ffffffff1660e01b81526004016101ea9190611649565b60206040518083038186803b15801561020257600080fd5b505afa158015610216573d6000803e3d6000fd5b505050506040513d601f19601f8201168201806040525081019061023a9190611102565b610279576040517f08c379a0000000000000000000000000000000000000000000000000000000008152600401610270906116a1565b60405180910390fd5b60008585905014158015610291575060008383905014155b6102d0576040517f08c379a00000000000000000000000000000000000000000000000000000000081526004016102c790611721565b60405180910390fd5b60006040518060a0016040528060028054905081526020013373ffffffffffffffffffffffffffffffffffffffff16815260200187878080601f016020809104026020016040519081016040528093929190818152602001838380828437600081840152601f19601f82011690508083019250505050505050815260200185858080601f016020809104026020016040519081016040528093929190818152602001838380828437600081840152601f19601f820116905080830192505050505050508152602001600067ffffffffffffffff8111156103d9577f4e487b7100000000000000000000000000000000000000000000000000000000600052604160045260246000fd5b6040519080825280602002602001820160405280156104075781602001602082028036833780820191505090505b50815250905060028190806001815401808255809150506001900390600052602060002090600502016000909190919091506000820151816000015560208201518160010160006101000a81548173ffffffffffffffffffffffffffffffffffffffff021916908373ffffffffffffffffffffffffffffffffffffffff16021790555060408201518160020190805190602001906104a6929190610f60565b5060608201518160030190805190602001906104c3929190610f60565b5060808201518160040190805190602001906104e0929190610fe6565b5050507fa69a0b29c66bd894f677b5bc26c32a1ffe414be147e0dd21ecbc88f56989d55d81600001518260200151836040015184606001516040516105289493929190611783565b60405180910390a180915050949350505050565b60008054906101000a900473ffffffffffffffffffffffffffffffffffffffff1673ffffffffffffffffffffffffffffffffffffffff166383c0e354336040518263ffffffff1660e01b81526004016105959190611649565b60206040518083038186803b1580156105ad57600080fd5b505afa1580156105c1573d6000803e3d6000fd5b505050506040513d601f19601f820116820180604052508101906105e59190611102565b610624576040517f08c379a000000000000000000000000000000000000000000000000000000000815260040161061b906116a1565b60405180910390fd5b813373ffffffffffffffffffffffffffffffffffffffff1660028281548110610676577f4e487b7100000000000000000000000000000000000000000000000000000000600052603260045260246000fd5b906000526020600020906005020160010160009054906101000a900473ffffffffffffffffffffffffffffffffffffffff1673ffffffffffffffffffffffffffffffffffffffff16146106fe576040517f08c379a00000000000000000000000000000000000000000000000000000000081526004016106f5906116e1565b60405180910390fd5b600560009054906101000a900460ff161561074e576040517f08c379a000000000000000000000000000000000000000000000000000000000815260040161074590611741565b60405180910390fd5b6001600560006101000a81548160ff021916908315150217905550604051806040016040528084815260200183815250600360008201518160000155602082015181600101559050507f085bc3a9d65742febd8cee3384f1c58642d32cc0256bd88be996413039df733583836040516107c89291906117d6565b60405180910390a17fe753b2ece1e6cee41bddbda28b3a7e94948ff1b6f694c2bdb78b50be1884f96260405160405180910390a1505050565b60008054906101000a900473ffffffffffffffffffffffffffffffffffffffff1681565b6002818154811061083557600080fd5b90600052602060002090600502016000915090508060000154908060010160009054906101000a900473ffffffffffffffffffffffffffffffffffffffff1690806002018054610884906119c7565b80601f01602080910402602001604051908101604052809291908181526020018280546108b0906119c7565b80156108fd5780601f106108d2576101008083540402835291602001916108fd565b820191906000526020600020905b8154815290600101906020018083116108e057829003601f168201915b505050505090806003018054610912906119c7565b80601f016020809104026020016040519081016040528092919081815260200182805461093e906119c7565b801561098b5780601f106109605761010080835404028352916020019161098b565b820191906000526020600020905b81548152906001019060200180831161096e57829003601f168201915b5050505050905084565b600160009054906101000a900473ffffffffffffffffffffffffffffffffffffffff1681565b6060600083101580156109ce5750828210155b610a0d576040517f08c379a0000000000000000000000000000000000000000000000000000000008152600401610a0490611721565b60405180910390fd5b60008383610a1b91906118f4565b9050600280549050811115610a335760028054905090505b60008167ffffffffffffffff811115610a75577f4e487b7100000000000000000000000000000000000000000000000000000000600052604160045260246000fd5b604051908082528060200260200182016040528015610aae57816020015b610a9b610f1b565b815260200190600190039081610a935790505b50905060005b82811015610d4d5760028187610aca919061189e565b81548110610b01577f4e487b7100000000000000000000000000000000000000000000000000000000600052603260045260246000fd5b90600052602060002090600502016040518060a0016040529081600082015481526020016001820160009054906101000a900473ffffffffffffffffffffffffffffffffffffffff1673ffffffffffffffffffffffffffffffffffffffff1673ffffffffffffffffffffffffffffffffffffffff168152602001600282018054610b8a906119c7565b80601f0160208091040260200160405190810160405280929190818152602001828054610bb6906119c7565b8015610c035780601f10610bd857610100808354040283529160200191610c03565b820191906000526020600020905b815481529060010190602001808311610be657829003601f168201915b50505050508152602001600382018054610c1c906119c7565b80601f0160208091040260200160405190810160405280929190818152602001828054610c48906119c7565b8015610c955780601f10610c6a57610100808354040283529160200191610c95565b820191906000526020600020905b815481529060010190602001808311610c7857829003601f168201915b5050505050815260200160048201805480602002602001604051908101604052809291908181526020018280548015610ced57602002820191906000526020600020905b815481526020019060010190808311610cd9575b505050505081525050828281518110610d2f577f4e487b7100000000000000000000000000000000000000000000000000000000600052603260045260246000fd5b60200260200101819052508080610d45906119f9565b915050610ab4565b50809250505092915050565b600160009054906101000a900473ffffffffffffffffffffffffffffffffffffffff1673ffffffffffffffffffffffffffffffffffffffff163373ffffffffffffffffffffffffffffffffffffffff1614610de9576040517f08c379a0000000000000000000000000000000000000000000000000000000008152600401610de090611701565b60405180910390fd5b600560009054906101000a900460ff16610e38576040517f08c379a0000000000000000000000000000000000000000000000000000000008152600401610e2f906116c1565b60405180910390fd5b80610efd57600260036000015481548110610e7c577f4e487b7100000000000000000000000000000000000000000000000000000000600052603260045260246000fd5b906000526020600020906005020160040160036001015490806001815401808255809150506001900390600052602060002001600090919091909150557fc6d81938d823af42706e9bb859b01b073d823c84e85b3d90cbe347bd6509cd04600360000154600360010154604051610ef49291906117d6565b60405180910390a15b6000600560006101000a81548160ff02191690831515021790555050565b6040518060a0016040528060008152602001600073ffffffffffffffffffffffffffffffffffffffff1681526020016060815260200160608152602001606081525090565b828054610f6c906119c7565b90600052602060002090601f016020900481019282610f8e5760008555610fd5565b82601f10610fa757805160ff1916838001178555610fd5565b82800160010185558215610fd5579182015b82811115610fd4578251825591602001919060010190610fb9565b5b509050610fe29190611033565b5090565b828054828255906000526020600020908101928215611022579160200282015b82811115611021578251825591602001919060010190611006565b5b50905061102f9190611033565b5090565b5b8082111561104c576000816000905550600101611034565b5090565b60008135905061105f81611ab1565b92915050565b60008151905061107481611ab1565b92915050565b60008083601f84011261108c57600080fd5b8235905067ffffffffffffffff8111156110a557600080fd5b6020830191508360018202830111156110bd57600080fd5b9250929050565b6000813590506110d381611ac8565b92915050565b6000602082840312156110eb57600080fd5b60006110f984828501611050565b91505092915050565b60006020828403121561111457600080fd5b600061112284828501611065565b91505092915050565b6000806000806040858703121561114157600080fd5b600085013567ffffffffffffffff81111561115b57600080fd5b6111678782880161107a565b9450945050602085013567ffffffffffffffff81111561118657600080fd5b6111928782880161107a565b925092505092959194509250565b6000602082840312156111b257600080fd5b60006111c0848285016110c4565b91505092915050565b600080604083850312156111dc57600080fd5b60006111ea858286016110c4565b92505060206111fb858286016110c4565b9150509250929050565b60006112118383611523565b905092915050565b6000611225838361162b565b60208301905092915050565b61123a81611928565b82525050565b61124981611928565b82525050565b600061125a8261181f565b611264818561185a565b935083602082028501611276856117ff565b8060005b858110156112b257848403895281516112938582611205565b945061129e83611840565b925060208a0199505060018101905061127a565b50829750879550505050505092915050565b60006112cf8261182a565b6112d9818561186b565b93506112e48361180f565b8060005b838110156113155781516112fc8882611219565b97506113078361184d565b9250506001810190506112e8565b5085935050505092915050565b61132b81611970565b82525050565b600061133c82611835565b611346818561187c565b9350611356818560208601611994565b61135f81611aa0565b840191505092915050565b600061137582611835565b61137f818561188d565b935061138f818560208601611994565b61139881611aa0565b840191505092915050565b60006113b060208361188d565b91507f5f5f5f496e737469747574696f6e206e6f7420726567697374657265645f5f5f6000830152602082019050919050565b60006113f060148361188d565b91507f5f5f5f4e6f7420496e2070726f636573735f5f5f0000000000000000000000006000830152602082019050919050565b600061143060168361188d565b91507f5f5f5f4e6f7420636f75727365206f776e65725f5f5f000000000000000000006000830152602082019050919050565b6000611470601a8361188d565b91507f5f5f5f4f6e6c79206f7261636c652063616e2063616c6c5f5f5f0000000000006000830152602082019050919050565b60006114b060188361188d565b91507f5f5f5f496e76616c696420506172616d61746572735f5f5f00000000000000006000830152602082019050919050565b60006114f060108361188d565b91507f5f5f5f496e2070726f636573735f5f5f000000000000000000000000000000006000830152602082019050919050565b600060a08301600083015161153b600086018261162b565b50602083015161154e6020860182611231565b50604083015184820360408601526115668282611331565b915050606083015184820360608601526115808282611331565b9150506080830151848203608086015261159a82826112c4565b9150508091505092915050565b600060a0830160008301516115bf600086018261162b565b5060208301516115d26020860182611231565b50604083015184820360408601526115ea8282611331565b915050606083015184820360608601526116048282611331565b9150506080830151848203608086015261161e82826112c4565b9150508091505092915050565b61163481611966565b82525050565b61164381611966565b82525050565b600060208201905061165e6000830184611240565b92915050565b6000602082019050818103600083015261167e818461124f565b905092915050565b600060208201905061169b6000830184611322565b92915050565b600060208201905081810360008301526116ba816113a3565b9050919050565b600060208201905081810360008301526116da816113e3565b9050919050565b600060208201905081810360008301526116fa81611423565b9050919050565b6000602082019050818103600083015261171a81611463565b9050919050565b6000602082019050818103600083015261173a816114a3565b9050919050565b6000602082019050818103600083015261175a816114e3565b9050919050565b6000602082019050818103600083015261177b81846115a7565b905092915050565b6000608082019050611798600083018761163a565b6117a56020830186611240565b81810360408301526117b7818561136a565b905081810360608301526117cb818461136a565b905095945050505050565b60006040820190506117eb600083018561163a565b6117f8602083018461163a565b9392505050565b6000819050602082019050919050565b6000819050602082019050919050565b600081519050919050565b600081519050919050565b600081519050919050565b6000602082019050919050565b6000602082019050919050565b600082825260208201905092915050565b600082825260208201905092915050565b600082825260208201905092915050565b600082825260208201905092915050565b60006118a982611966565b91506118b483611966565b9250827fffffffffffffffffffffffffffffffffffffffffffffffffffffffffffffffff038211156118e9576118e8611a42565b5b828201905092915050565b60006118ff82611966565b915061190a83611966565b92508282101561191d5761191c611a42565b5b828203905092915050565b600061193382611946565b9050919050565b60008115159050919050565b600073ffffffffffffffffffffffffffffffffffffffff82169050919050565b6000819050919050565b600061197b82611982565b9050919050565b600061198d82611946565b9050919050565b60005b838110156119b2578082015181840152602081019050611997565b838111156119c1576000848401525b50505050565b600060028204905060018216806119df57607f821691505b602082108114156119f3576119f2611a71565b5b50919050565b6000611a0482611966565b91507fffffffffffffffffffffffffffffffffffffffffffffffffffffffffffffffff821415611a3757611a36611a42565b5b600182019050919050565b7f4e487b7100000000000000000000000000000000000000000000000000000000600052601160045260246000fd5b7f4e487b7100000000000000000000000000000000000000000000000000000000600052602260045260246000fd5b6000601f19601f8301169050919050565b611aba8161193a565b8114611ac557600080fd5b50565b611ad181611966565b8114611adc57600080fd5b5056fea2646970667358221220a6ea969e8979515d9f53512b9398caad1fb0cc4c4916367be8dafc88192f167364736f6c63430008000033",
  "immutableReferences": {},
  "source": "// SPDX-License-Identifier: UNLICENSED\r\npragma solidity ^0.8.0;\r\n\r\nimport \"./InstitutionRegistry.sol\";\r\n\r\ncontract CourseRegistry {\r\n    InstitutionRegistry public institutionRegistry;\r\n    address public oracleAddress;\r\n\r\n    constructor(address _institutionRegistry, address _oracleAddress) {\r\n        institutionRegistry = InstitutionRegistry(_institutionRegistry);\r\n        oracleAddress = _oracleAddress;\r\n    }\r\n\r\n    // define events\r\n    event CheckDuplicateApproveEvent(uint courseId, uint courseIdToRecognize);\r\n    event CheckApproveFnTimeoutEvent();\r\n    event ApproveCourseSuccessEvent(uint courseId, uint courseIdToRecognize);\r\n    event CourseRegisterEvent(\r\n        uint courseId,\r\n        address owner,\r\n        string courseName,\r\n        string courseFileHash\r\n    );\r\n    // define structs\r\n    struct Course {\r\n        uint id;\r\n        address owner;\r\n        string courseName;\r\n        string courseFileHash;\r\n        uint[] recognizingCourses;\r\n    }\r\n    struct RecognizingDto {\r\n        uint courseId;\r\n        uint courseIdToRecognize;\r\n    }\r\n    //all courses list\r\n    Course[] public courses;\r\n\r\n    //store the current recognizing course id and the course id to recognize\r\n    RecognizingDto currRecognizing;\r\n    //if in recognizing process, lock the approve function in case of reentrancy\r\n    bool isInUse = false;\r\n\r\n    function registerCourse(\r\n        string calldata courseName,\r\n        string calldata courseFileHash\r\n    ) external onlyRegisteredInstitution returns (Course memory) {\r\n        require(\r\n            bytes(courseName).length != 0 && bytes(courseFileHash).length != 0,\r\n            \"___Invalid Paramaters___\"\r\n        );\r\n\r\n        Course memory newCourse = Course(\r\n            courses.length,\r\n            msg.sender,\r\n            courseName,\r\n            courseFileHash,\r\n            new uint[](0)\r\n        );\r\n        courses.push(newCourse);\r\n        //inform the server to add the course to the database\r\n        emit CourseRegisterEvent(\r\n            newCourse.id,\r\n            newCourse.owner,\r\n            newCourse.courseName,\r\n            newCourse.courseFileHash\r\n        );\r\n        return newCourse;\r\n    }\r\n\r\n    function approveCourse(\r\n        uint courseId,\r\n        uint courseIdToRecognize\r\n    )\r\n        external\r\n        onlyRegisteredInstitution\r\n        onlyCourseOwner(courseId)\r\n        onlyNotInuse\r\n    {\r\n        //lock the function\r\n        isInUse = true;\r\n        //store the course id and the course id to recognize\r\n        currRecognizing = RecognizingDto(courseId, courseIdToRecognize);\r\n        //inform the oracle to check if the course is already recognized\r\n        emit CheckDuplicateApproveEvent(courseId, courseIdToRecognize);\r\n        //inform the oracle to timeout the process after some time\r\n        emit CheckApproveFnTimeoutEvent();\r\n    }\r\n\r\n    //oracle calls this function to inform the contract the validation result\r\n    //if timeout, the oracle will call this function with isDuplicate = true\r\n    function deliverResultIsDuplicate(\r\n        bool isDuplicate\r\n    ) external onlyOracle onlyInuse {\r\n        //if not duplicate, add the course id to the recognizing course's recognizingCourses array\r\n        if (!isDuplicate) {\r\n            //if not duplicate, add the course id to the recognizing course's recognizingCourses array\r\n            courses[currRecognizing.courseId].recognizingCourses.push(\r\n                currRecognizing.courseIdToRecognize\r\n            );\r\n\r\n            //inform the oracle the process is done and close the timer for this process\r\n            emit ApproveCourseSuccessEvent(\r\n                currRecognizing.courseId,\r\n                currRecognizing.courseIdToRecognize\r\n            );\r\n        }\r\n        //unlock the function\r\n        isInUse = false;\r\n    }\r\n\r\n    function getCourses(\r\n        uint from,\r\n        uint to\r\n    ) public view returns (Course[] memory) {\r\n        require(from >= 0 && to >= from, \"___Invalid Paramaters___\");\r\n        uint amount = to - from;\r\n\r\n        //if amount is greater than the length of the array, return the whole array\r\n        if (amount > courses.length) {\r\n            amount = courses.length;\r\n        }\r\n\r\n        Course[] memory _courses = new Course[](amount);\r\n\r\n        for (uint i = 0; i < amount; i++) {\r\n            _courses[i] = courses[from + i];\r\n        }\r\n        return _courses;\r\n    }\r\n\r\n    //modifiers\r\n    modifier onlyRegisteredInstitution() {\r\n        require(\r\n            institutionRegistry.isInstitutionRegistered(msg.sender),\r\n            \"___Institution not registered___\"\r\n        );\r\n        _;\r\n    }\r\n    modifier onlyCourseOwner(uint courseId) {\r\n        require(\r\n            courses[courseId].owner == msg.sender,\r\n            \"___Not course owner___\"\r\n        );\r\n        _;\r\n    }\r\n\r\n    modifier onlyOracle() {\r\n        require(msg.sender == oracleAddress, \"___Only oracle can call___\");\r\n        _;\r\n    }\r\n\r\n    modifier onlyInuse() {\r\n        require(isInUse, \"___Not In process___\");\r\n        _;\r\n    }\r\n    modifier onlyNotInuse() {\r\n        require(!isInUse, \"___In process___\");\r\n        _;\r\n    }\r\n}\r\n",
  "sourcePath": "C:\\Users\\98611\\Desktop\\test\\credit-transfer-dapp\\contracts\\contracts\\CourseRegistry.sol",
  "compiler": {
    "name": "solc",
    "version": "0.8.0+commit.c7dfd78e.Emscripten.clang"
  },
  "schemaVersion": "3.4.14",
  "updatedAt": "2023-07-20T02:13:33.586Z",
  "networkType": "ethereum",
  "devdoc": {
    "kind": "dev",
    "methods": {},
    "version": 1
  },
  "userdoc": {
    "kind": "user",
    "methods": {},
    "version": 1
  }
}