{
  "contractName": "InstitutionRegistry",
  "abi": [
    {
      "anonymous": false,
      "inputs": [
        {
          "indexed": false,
          "internalType": "address",
          "name": "institutionAddress",
          "type": "address"
        },
        {
          "indexed": false,
          "internalType": "string",
          "name": "name",
          "type": "string"
        }
      ],
      "name": "InstitutionRegisterEvent",
      "type": "event"
    },
    {
      "inputs": [
        {
          "internalType": "address",
          "name": "",
          "type": "address"
        }
      ],
      "name": "isInstitutionRegistered",
      "outputs": [
        {
          "internalType": "bool",
          "name": "",
          "type": "bool"
        }
      ],
      "stateMutability": "view",
      "type": "function",
      "constant": true
    },
    {
      "inputs": [
        {
          "internalType": "uint256",
          "name": "",
          "type": "uint256"
        }
      ],
      "name": "registeredInstitutionList",
      "outputs": [
        {
          "internalType": "address",
          "name": "institutionAddress",
          "type": "address"
        },
        {
          "internalType": "string",
          "name": "name",
          "type": "string"
        }
      ],
      "stateMutability": "view",
      "type": "function",
      "constant": true
    },
    {
      "inputs": [
        {
          "internalType": "string",
          "name": "name",
          "type": "string"
        }
      ],
      "name": "registerInstitution",
      "outputs": [],
      "stateMutability": "nonpayable",
      "type": "function"
    },
    {
      "inputs": [
        {
          "internalType": "uint256",
          "name": "from",
          "type": "uint256"
        },
        {
          "internalType": "uint256",
          "name": "to",
          "type": "uint256"
        }
      ],
      "name": "getInstitutions",
      "outputs": [
        {
          "components": [
            {
              "internalType": "address",
              "name": "institutionAddress",
              "type": "address"
            },
            {
              "internalType": "string",
              "name": "name",
              "type": "string"
            }
          ],
          "internalType": "struct InstitutionRegistry.Institution[]",
          "name": "",
          "type": "tuple[]"
        }
      ],
      "stateMutability": "view",
      "type": "function",
      "constant": true
    }
  ],
  "bytecode": "0x608060405234801561001057600080fd5b50610f0b806100206000396000f3fe608060405234801561001057600080fd5b506004361061004c5760003560e01c8063020bf7b41461005157806383c0e354146100815780638ef775e5146100b1578063d0e15bca146100e2575b600080fd5b61006b600480360381019061006691906108f0565b6100fe565b6040516100789190610bc6565b60405180910390f35b61009b60048036038101906100969190610859565b6103a7565b6040516100a89190610be8565b60405180910390f35b6100cb60048036038101906100c691906108c7565b6103c7565b6040516100d9929190610b96565b60405180910390f35b6100fc60048036038101906100f79190610882565b6104a3565b005b60606000831015801561011057508282115b61014f576040517f08c379a000000000000000000000000000000000000000000000000000000000815260040161014690610c23565b60405180910390fd5b6000838361015d9190610cff565b90506001805490508111156101755760018054905090505b60008167ffffffffffffffff8111156101b7577f4e487b7100000000000000000000000000000000000000000000000000000000600052604160045260246000fd5b6040519080825280602002602001820160405280156101f057816020015b6101dd610712565b8152602001906001900390816101d55790505b50905060005b8281101561039b576001818761020c9190610ca9565b81548110610243577f4e487b7100000000000000000000000000000000000000000000000000000000600052603260045260246000fd5b90600052602060002090600202016040518060400160405290816000820160009054906101000a900473ffffffffffffffffffffffffffffffffffffffff1673ffffffffffffffffffffffffffffffffffffffff1673ffffffffffffffffffffffffffffffffffffffff1681526020016001820180546102c290610dbd565b80601f01602080910402602001604051908101604052809291908181526020018280546102ee90610dbd565b801561033b5780601f106103105761010080835404028352916020019161033b565b820191906000526020600020905b81548152906001019060200180831161031e57829003601f168201915b50505050508152505082828151811061037d577f4e487b7100000000000000000000000000000000000000000000000000000000600052603260045260246000fd5b6020026020010181905250808061039390610def565b9150506101f6565b50809250505092915050565b60006020528060005260406000206000915054906101000a900460ff1681565b600181815481106103d757600080fd5b90600052602060002090600202016000915090508060000160009054906101000a900473ffffffffffffffffffffffffffffffffffffffff169080600101805461042090610dbd565b80601f016020809104026020016040519081016040528092919081815260200182805461044c90610dbd565b80156104995780601f1061046e57610100808354040283529160200191610499565b820191906000526020600020905b81548152906001019060200180831161047c57829003601f168201915b5050505050905082565b6000803373ffffffffffffffffffffffffffffffffffffffff1673ffffffffffffffffffffffffffffffffffffffff16815260200190815260200160002060009054906101000a900460ff161561052f576040517f08c379a000000000000000000000000000000000000000000000000000000000815260040161052690610c03565b60405180910390fd5b6000828290501415610576576040517f08c379a000000000000000000000000000000000000000000000000000000000815260040161056d90610c23565b60405180910390fd5b60016000803373ffffffffffffffffffffffffffffffffffffffff1673ffffffffffffffffffffffffffffffffffffffff16815260200190815260200160002060006101000a81548160ff021916908315150217905550600060405180604001604052803373ffffffffffffffffffffffffffffffffffffffff16815260200184848080601f016020809104026020016040519081016040528093929190818152602001838380828437600081840152601f19601f820116905080830192505050505050508152509050600181908060018154018082558091505060019003906000526020600020906002020160009091909190915060008201518160000160006101000a81548173ffffffffffffffffffffffffffffffffffffffff021916908373ffffffffffffffffffffffffffffffffffffffff16021790555060208201518160010190805190602001906106cf929190610742565b5050507f6d9b0371f8e55871cf6dfdb21171b3a1ab6c41930ad498a0d1dbd61388d173dd33848460405161070593929190610b64565b60405180910390a1505050565b6040518060400160405280600073ffffffffffffffffffffffffffffffffffffffff168152602001606081525090565b82805461074e90610dbd565b90600052602060002090601f01602090048101928261077057600085556107b7565b82601f1061078957805160ff19168380011785556107b7565b828001600101855582156107b7579182015b828111156107b657825182559160200191906001019061079b565b5b5090506107c491906107c8565b5090565b5b808211156107e15760008160009055506001016107c9565b5090565b6000813590506107f481610ea7565b92915050565b60008083601f84011261080c57600080fd5b8235905067ffffffffffffffff81111561082557600080fd5b60208301915083600182028301111561083d57600080fd5b9250929050565b60008135905061085381610ebe565b92915050565b60006020828403121561086b57600080fd5b6000610879848285016107e5565b91505092915050565b6000806020838503121561089557600080fd5b600083013567ffffffffffffffff8111156108af57600080fd5b6108bb858286016107fa565b92509250509250929050565b6000602082840312156108d957600080fd5b60006108e784828501610844565b91505092915050565b6000806040838503121561090357600080fd5b600061091185828601610844565b925050602061092285828601610844565b9150509250929050565b60006109388383610b27565b905092915050565b61094981610d33565b82525050565b61095881610d33565b82525050565b600061096982610c53565b6109738185610c76565b93508360208202850161098585610c43565b8060005b858110156109c157848403895281516109a2858261092c565b94506109ad83610c69565b925060208a01995050600181019050610989565b50829750879550505050505092915050565b6109dc81610d45565b82525050565b60006109ee8385610c98565b93506109fb838584610d7b565b610a0483610e96565b840190509392505050565b6000610a1a82610c5e565b610a248185610c87565b9350610a34818560208601610d8a565b610a3d81610e96565b840191505092915050565b6000610a5382610c5e565b610a5d8185610c98565b9350610a6d818560208601610d8a565b610a7681610e96565b840191505092915050565b6000610a8e602783610c98565b91507f5f5f5f496e737469747574696f6e20697320616c72656164792072656769737460008301527f657265645f5f5f000000000000000000000000000000000000000000000000006020830152604082019050919050565b6000610af4601883610c98565b91507f5f5f5f496e76616c696420706172616d65746572735f5f5f00000000000000006000830152602082019050919050565b6000604083016000830151610b3f6000860182610940565b5060208301518482036020860152610b578282610a0f565b9150508091505092915050565b6000604082019050610b79600083018661094f565b8181036020830152610b8c8184866109e2565b9050949350505050565b6000604082019050610bab600083018561094f565b8181036020830152610bbd8184610a48565b90509392505050565b60006020820190508181036000830152610be0818461095e565b905092915050565b6000602082019050610bfd60008301846109d3565b92915050565b60006020820190508181036000830152610c1c81610a81565b9050919050565b60006020820190508181036000830152610c3c81610ae7565b9050919050565b6000819050602082019050919050565b600081519050919050565b600081519050919050565b6000602082019050919050565b600082825260208201905092915050565b600082825260208201905092915050565b600082825260208201905092915050565b6000610cb482610d71565b9150610cbf83610d71565b9250827fffffffffffffffffffffffffffffffffffffffffffffffffffffffffffffffff03821115610cf457610cf3610e38565b5b828201905092915050565b6000610d0a82610d71565b9150610d1583610d71565b925082821015610d2857610d27610e38565b5b828203905092915050565b6000610d3e82610d51565b9050919050565b60008115159050919050565b600073ffffffffffffffffffffffffffffffffffffffff82169050919050565b6000819050919050565b82818337600083830152505050565b60005b83811015610da8578082015181840152602081019050610d8d565b83811115610db7576000848401525b50505050565b60006002820490506001821680610dd557607f821691505b60208210811415610de957610de8610e67565b5b50919050565b6000610dfa82610d71565b91507fffffffffffffffffffffffffffffffffffffffffffffffffffffffffffffffff821415610e2d57610e2c610e38565b5b600182019050919050565b7f4e487b7100000000000000000000000000000000000000000000000000000000600052601160045260246000fd5b7f4e487b7100000000000000000000000000000000000000000000000000000000600052602260045260246000fd5b6000601f19601f8301169050919050565b610eb081610d33565b8114610ebb57600080fd5b50565b610ec781610d71565b8114610ed257600080fd5b5056fea2646970667358221220d845f318de84843c72fc38e424f4d2504d287fc007163a65067e599a954a878f64736f6c63430008000033",
  "immutableReferences": {},
  "source": "// SPDX-License-Identifier: UNLICENSED\r\npragma solidity ^0.8.0;\r\n\r\ncontract InstitutionRegistry {\r\n    // Mapping to check if an institution is registered\r\n    mapping(address => bool) public isInstitutionRegistered;\r\n\r\n    event InstitutionRegisterEvent(address institutionAddress, string name);\r\n    struct Institution {\r\n        address institutionAddress;\r\n        string name;\r\n    }\r\n    // Array to store all the registered institutions\r\n    Institution[] public registeredInstitutionList;\r\n\r\n    function registerInstitution(\r\n        string calldata name\r\n    ) external onlyUnregisteredInstitution {\r\n        require(bytes(name).length != 0, \"___Invalid parameters___\");\r\n        // Add the institution to the mapping and add the address to the array\r\n        isInstitutionRegistered[msg.sender] = true;\r\n        Institution memory newInstitution = Institution(msg.sender, name);\r\n        registeredInstitutionList.push(newInstitution);\r\n        //inform the server to add the institution to the database\r\n        emit InstitutionRegisterEvent(msg.sender, name);\r\n    }\r\n\r\n    function getInstitutions(\r\n        uint from,\r\n        uint to\r\n    ) external view returns (Institution[] memory) {\r\n        require(from >= 0 && to > from, \"___Invalid parameters___\");\r\n        uint amount = to - from;\r\n        //if amount is greater than the length of the array, return the whole array\r\n        if (amount > registeredInstitutionList.length) {\r\n            amount = registeredInstitutionList.length;\r\n        }\r\n        Institution[] memory institutions = new Institution[](amount);\r\n\r\n        for (uint i = 0; i < amount; i++) {\r\n            institutions[i] = registeredInstitutionList[from + i];\r\n        }\r\n        return institutions;\r\n    }\r\n\r\n    modifier onlyUnregisteredInstitution() {\r\n        require(\r\n            !isInstitutionRegistered[msg.sender],\r\n            \"___Institution is already registered___\"\r\n        );\r\n        _;\r\n    }\r\n}\r\n",
  "sourcePath": "C:\\Users\\98611\\Desktop\\test\\credit-transfer-dapp\\contracts\\contracts\\InstitutionRegistry.sol",
  "compiler": {
    "name": "solc",
    "version": "0.8.0+commit.c7dfd78e.Emscripten.clang"
  },
  "schemaVersion": "3.4.14",
  "updatedAt": "2023-07-24T12:28:01.657Z",
  "networkType": "ethereum",
  "devdoc": {
    "kind": "dev",
    "methods": {},
    "version": 1
  },
  "userdoc": {
    "kind": "user",
    "methods": {},
    "version": 1
  }
}