{
  "contractName": "CourseRegistry",
  "abi": [
    {
      "inputs": [
        {
          "internalType": "address",
          "name": "_institutionRegistry",
          "type": "address"
        }
      ],
      "stateMutability": "nonpayable",
      "type": "constructor"
    },
    {
      "inputs": [
        {
          "internalType": "uint256",
          "name": "",
          "type": "uint256"
        },
        {
          "internalType": "uint256",
          "name": "",
          "type": "uint256"
        }
      ],
      "name": "IsCourseRecognized",
      "outputs": [
        {
          "internalType": "bool",
          "name": "",
          "type": "bool"
        }
      ],
      "stateMutability": "view",
      "type": "function",
      "constant": true
    },
    {
      "inputs": [
        {
          "internalType": "uint256",
          "name": "",
          "type": "uint256"
        }
      ],
      "name": "courses",
      "outputs": [
        {
          "internalType": "uint256",
          "name": "id",
          "type": "uint256"
        },
        {
          "internalType": "address",
          "name": "owner",
          "type": "address"
        },
        {
          "internalType": "string",
          "name": "courseName",
          "type": "string"
        },
        {
          "internalType": "string",
          "name": "courseFileHash",
          "type": "string"
        }
      ],
      "stateMutability": "view",
      "type": "function",
      "constant": true
    },
    {
      "inputs": [
        {
          "internalType": "uint256",
          "name": "",
          "type": "uint256"
        }
      ],
      "name": "coursesDict",
      "outputs": [
        {
          "internalType": "uint256",
          "name": "id",
          "type": "uint256"
        },
        {
          "internalType": "address",
          "name": "owner",
          "type": "address"
        },
        {
          "internalType": "string",
          "name": "courseName",
          "type": "string"
        },
        {
          "internalType": "string",
          "name": "courseFileHash",
          "type": "string"
        }
      ],
      "stateMutability": "view",
      "type": "function",
      "constant": true
    },
    {
      "inputs": [
        {
          "internalType": "address",
          "name": "",
          "type": "address"
        },
        {
          "internalType": "uint256",
          "name": "",
          "type": "uint256"
        }
      ],
      "name": "coursesOfInstitution",
      "outputs": [
        {
          "internalType": "uint256",
          "name": "id",
          "type": "uint256"
        },
        {
          "internalType": "address",
          "name": "owner",
          "type": "address"
        },
        {
          "internalType": "string",
          "name": "courseName",
          "type": "string"
        },
        {
          "internalType": "string",
          "name": "courseFileHash",
          "type": "string"
        }
      ],
      "stateMutability": "view",
      "type": "function",
      "constant": true
    },
    {
      "inputs": [],
      "name": "id",
      "outputs": [
        {
          "internalType": "uint256",
          "name": "",
          "type": "uint256"
        }
      ],
      "stateMutability": "view",
      "type": "function",
      "constant": true
    },
    {
      "inputs": [],
      "name": "institutionRegistry",
      "outputs": [
        {
          "internalType": "contract InstitutionRegistry",
          "name": "",
          "type": "address"
        }
      ],
      "stateMutability": "view",
      "type": "function",
      "constant": true
    },
    {
      "inputs": [
        {
          "internalType": "uint256",
          "name": "",
          "type": "uint256"
        },
        {
          "internalType": "uint256",
          "name": "",
          "type": "uint256"
        }
      ],
      "name": "recognizedCourses",
      "outputs": [
        {
          "internalType": "uint256",
          "name": "",
          "type": "uint256"
        }
      ],
      "stateMutability": "view",
      "type": "function",
      "constant": true
    },
    {
      "inputs": [
        {
          "internalType": "uint256",
          "name": "",
          "type": "uint256"
        },
        {
          "internalType": "uint256",
          "name": "",
          "type": "uint256"
        }
      ],
      "name": "recognizingCourses",
      "outputs": [
        {
          "internalType": "uint256",
          "name": "",
          "type": "uint256"
        }
      ],
      "stateMutability": "view",
      "type": "function",
      "constant": true
    },
    {
      "inputs": [
        {
          "internalType": "string",
          "name": "courseName",
          "type": "string"
        },
        {
          "internalType": "string",
          "name": "courseFileHash",
          "type": "string"
        }
      ],
      "name": "registerCourse",
      "outputs": [
        {
          "components": [
            {
              "internalType": "uint256",
              "name": "id",
              "type": "uint256"
            },
            {
              "internalType": "address",
              "name": "owner",
              "type": "address"
            },
            {
              "internalType": "string",
              "name": "courseName",
              "type": "string"
            },
            {
              "internalType": "string",
              "name": "courseFileHash",
              "type": "string"
            }
          ],
          "internalType": "struct CourseRegistry.Course",
          "name": "",
          "type": "tuple"
        }
      ],
      "stateMutability": "nonpayable",
      "type": "function"
    },
    {
      "inputs": [
        {
          "internalType": "uint256",
          "name": "courseId",
          "type": "uint256"
        },
        {
          "internalType": "uint256",
          "name": "courseIdToRecognize",
          "type": "uint256"
        }
      ],
      "name": "approveCourse",
      "outputs": [],
      "stateMutability": "nonpayable",
      "type": "function"
    },
    {
      "inputs": [
        {
          "internalType": "uint256",
          "name": "from",
          "type": "uint256"
        },
        {
          "internalType": "uint256",
          "name": "to",
          "type": "uint256"
        }
      ],
      "name": "getCourses",
      "outputs": [
        {
          "components": [
            {
              "internalType": "uint256",
              "name": "id",
              "type": "uint256"
            },
            {
              "internalType": "address",
              "name": "owner",
              "type": "address"
            },
            {
              "internalType": "string",
              "name": "courseName",
              "type": "string"
            },
            {
              "internalType": "string",
              "name": "courseFileHash",
              "type": "string"
            }
          ],
          "internalType": "struct CourseRegistry.Course[]",
          "name": "",
          "type": "tuple[]"
        }
      ],
      "stateMutability": "view",
      "type": "function",
      "constant": true
    },
    {
      "inputs": [
        {
          "internalType": "address",
          "name": "institutionAddress",
          "type": "address"
        },
        {
          "internalType": "uint256",
          "name": "from",
          "type": "uint256"
        },
        {
          "internalType": "uint256",
          "name": "to",
          "type": "uint256"
        }
      ],
      "name": "getCoursesByInstitution",
      "outputs": [
        {
          "components": [
            {
              "internalType": "uint256",
              "name": "id",
              "type": "uint256"
            },
            {
              "internalType": "address",
              "name": "owner",
              "type": "address"
            },
            {
              "internalType": "string",
              "name": "courseName",
              "type": "string"
            },
            {
              "internalType": "string",
              "name": "courseFileHash",
              "type": "string"
            }
          ],
          "internalType": "struct CourseRegistry.Course[]",
          "name": "",
          "type": "tuple[]"
        }
      ],
      "stateMutability": "view",
      "type": "function",
      "constant": true
    },
    {
      "inputs": [
        {
          "internalType": "uint256",
          "name": "courseId",
          "type": "uint256"
        }
      ],
      "name": "getRecognizingCoursesByCourseId",
      "outputs": [
        {
          "internalType": "uint256[]",
          "name": "",
          "type": "uint256[]"
        }
      ],
      "stateMutability": "view",
      "type": "function",
      "constant": true
    },
    {
      "inputs": [
        {
          "internalType": "uint256",
          "name": "courseId",
          "type": "uint256"
        }
      ],
      "name": "getRecognizedCoursesByCourseId",
      "outputs": [
        {
          "internalType": "uint256[]",
          "name": "",
          "type": "uint256[]"
        }
      ],
      "stateMutability": "view",
      "type": "function",
      "constant": true
    }
  ],
  "bytecode": "0x608060405260006001553480156200001657600080fd5b50604051620026243803806200262483398181016040528101906200003c91906200009a565b806000806101000a81548173ffffffffffffffffffffffffffffffffffffffff021916908373ffffffffffffffffffffffffffffffffffffffff1602179055505062000114565b6000815190506200009481620000fa565b92915050565b600060208284031215620000ad57600080fd5b6000620000bd8482850162000083565b91505092915050565b6000620000d382620000da565b9050919050565b600073ffffffffffffffffffffffffffffffffffffffff82169050919050565b6200010581620000c6565b81146200011157600080fd5b50565b61250080620001246000396000f3fe608060405234801561001057600080fd5b50600436106100ea5760003560e01c80639580712d1161008c578063af640d0f11610066578063af640d0f146102af578063c2776fc8146102cd578063c82d89d1146102fd578063e71509ea1461032d576100ea565b80639580712d1461021c57806396f979d21461024c578063a1550b5a1461027f576100ea565b80631b1fcb04116100c85780631b1fcb041461016e578063584cb9ad1461018c5780636785da15146101bc57806387af239a146101ec576100ea565b806305bd077d146100ef5780630fd88c7a1461012257806318db3b2714610152575b600080fd5b61010960048036038101906101049190611aa1565b610360565b6040516101199493929190612180565b60405180910390f35b61013c60048036038101906101379190611b55565b6104dd565b6040516101499190612143565b60405180910390f35b61016c60048036038101906101679190611bf3565b610967565b005b610176610c5c565b6040516101839190612088565b60405180910390f35b6101a660048036038101906101a19190611bf3565b610c80565b6040516101b39190612165565b60405180910390f35b6101d660048036038101906101d19190611add565b610cb1565b6040516101e39190612029565b60405180910390f35b61020660048036038101906102019190611bca565b6110af565b604051610213919061204b565b60405180910390f35b61023660048036038101906102319190611bca565b6111b5565b604051610243919061204b565b60405180910390f35b61026660048036038101906102619190611bca565b6112bb565b6040516102769493929190612180565b60405180910390f35b61029960048036038101906102949190611bf3565b61142b565b6040516102a69190612165565b60405180910390f35b6102b761145c565b6040516102c49190612165565b60405180910390f35b6102e760048036038101906102e29190611bf3565b611462565b6040516102f49190612029565b60405180910390f35b61031760048036038101906103129190611bf3565b6117a8565b604051610324919061206d565b60405180910390f35b61034760048036038101906103429190611bca565b6117d7565b6040516103579493929190612180565b60405180910390f35b6007602052816000526040600020818154811061037c57600080fd5b9060005260206000209060040201600091509150508060000154908060010160009054906101000a900473ffffffffffffffffffffffffffffffffffffffff16908060020180546103cc9061239b565b80601f01602080910402602001604051908101604052809291908181526020018280546103f89061239b565b80156104455780601f1061041a57610100808354040283529160200191610445565b820191906000526020600020905b81548152906001019060200180831161042857829003601f168201915b50505050509080600301805461045a9061239b565b80601f01602080910402602001604051908101604052809291908181526020018280546104869061239b565b80156104d35780601f106104a8576101008083540402835291602001916104d3565b820191906000526020600020905b8154815290600101906020018083116104b657829003601f168201915b5050505050905084565b6104e5611937565b60008060009054906101000a900473ffffffffffffffffffffffffffffffffffffffff1673ffffffffffffffffffffffffffffffffffffffff1663727fef62336040518263ffffffff1660e01b8152600401610541919061200e565b60206040518083038186803b15801561055957600080fd5b505afa15801561056d573d6000803e3d6000fd5b505050506040513d601f19601f820116820180604052508101906105919190611b2c565b9050806105d3576040517f08c379a00000000000000000000000000000000000000000000000000000000081526004016105ca906120c3565b60405180910390fd5b600086869050141580156105eb575060008484905014155b61062a576040517f08c379a000000000000000000000000000000000000000000000000000000000815260040161062190612123565b60405180910390fd5b6000604051806080016040528060015481526020013373ffffffffffffffffffffffffffffffffffffffff16815260200188888080601f016020809104026020016040519081016040528093929190818152602001838380828437600081840152601f19601f82011690508083019250505050505050815260200186868080601f016020809104026020016040519081016040528093929190818152602001838380828437600081840152601f19601f820116905080830192505050505050508152509050806002600060015481526020019081526020016000206000820151816000015560208201518160010160006101000a81548173ffffffffffffffffffffffffffffffffffffffff021916908373ffffffffffffffffffffffffffffffffffffffff1602179055506040820151816002019080519060200190610772929190611975565b50606082015181600301908051906020019061078f929190611975565b5090505060068190806001815401808255809150506001900390600052602060002090600402016000909190919091506000820151816000015560208201518160010160006101000a81548173ffffffffffffffffffffffffffffffffffffffff021916908373ffffffffffffffffffffffffffffffffffffffff160217905550604082015181600201908051906020019061082c929190611975565b506060820151816003019080519060200190610849929190611975565b505050600760003373ffffffffffffffffffffffffffffffffffffffff1673ffffffffffffffffffffffffffffffffffffffff1681526020019081526020016000208190806001815401808255809150506001900390600052602060002090600402016000909190919091506000820151816000015560208201518160010160006101000a81548173ffffffffffffffffffffffffffffffffffffffff021916908373ffffffffffffffffffffffffffffffffffffffff1602179055506040820151816002019080519060200190610922929190611975565b50606082015181600301908051906020019061093f929190611975565b50505060016000815480929190610955906123cd565b91905055508092505050949350505050565b60008060009054906101000a900473ffffffffffffffffffffffffffffffffffffffff1673ffffffffffffffffffffffffffffffffffffffff1663727fef62336040518263ffffffff1660e01b81526004016109c3919061200e565b60206040518083038186803b1580156109db57600080fd5b505afa1580156109ef573d6000803e3d6000fd5b505050506040513d601f19601f82011682018060405250810190610a139190611b2c565b905080610a55576040517f08c379a0000000000000000000000000000000000000000000000000000000008152600401610a4c906120c3565b60405180910390fd5b3373ffffffffffffffffffffffffffffffffffffffff1660068481548110610aa6577f4e487b7100000000000000000000000000000000000000000000000000000000600052603260045260246000fd5b906000526020600020906004020160010160009054906101000a900473ffffffffffffffffffffffffffffffffffffffff1673ffffffffffffffffffffffffffffffffffffffff1614610b2e576040517f08c379a0000000000000000000000000000000000000000000000000000000008152600401610b25906120e3565b60405180910390fd5b6000151560036000858152602001908152602001600020600084815260200190815260200160002060009054906101000a900460ff16151514610ba6576040517f08c379a0000000000000000000000000000000000000000000000000000000008152600401610b9d90612103565b60405180910390fd5b600160036000858152602001908152602001600020600084815260200190815260200160002060006101000a81548160ff0219169083151502179055506004600084815260200190815260200160002082908060018154018082558091505060019003906000526020600020016000909190919091505560056000838152602001908152602001600020839080600181540180825580915050600190039060005260206000200160009091909190915055505050565b60008054906101000a900473ffffffffffffffffffffffffffffffffffffffff1681565b60046020528160005260406000208181548110610c9c57600080fd5b90600052602060002001600091509150505481565b606060008310158015610cc45750600082115b610d03576040517f08c379a0000000000000000000000000000000000000000000000000000000008152600401610cfa90612123565b60405180910390fd5b60008383610d1191906122c8565b9050600760008673ffffffffffffffffffffffffffffffffffffffff1673ffffffffffffffffffffffffffffffffffffffff16815260200190815260200160002080549050811115610da357600760008673ffffffffffffffffffffffffffffffffffffffff1673ffffffffffffffffffffffffffffffffffffffff1681526020019081526020016000208054905090505b60008167ffffffffffffffff811115610de5577f4e487b7100000000000000000000000000000000000000000000000000000000600052604160045260246000fd5b604051908082528060200260200182016040528015610e1e57816020015b610e0b611937565b815260200190600190039081610e035790505b50905060005b828110156110a257600760008873ffffffffffffffffffffffffffffffffffffffff1673ffffffffffffffffffffffffffffffffffffffff1681526020019081526020016000208187610e779190612272565b81548110610eae577f4e487b7100000000000000000000000000000000000000000000000000000000600052603260045260246000fd5b9060005260206000209060040201604051806080016040529081600082015481526020016001820160009054906101000a900473ffffffffffffffffffffffffffffffffffffffff1673ffffffffffffffffffffffffffffffffffffffff1673ffffffffffffffffffffffffffffffffffffffff168152602001600282018054610f379061239b565b80601f0160208091040260200160405190810160405280929190818152602001828054610f639061239b565b8015610fb05780601f10610f8557610100808354040283529160200191610fb0565b820191906000526020600020905b815481529060010190602001808311610f9357829003601f168201915b50505050508152602001600382018054610fc99061239b565b80601f0160208091040260200160405190810160405280929190818152602001828054610ff59061239b565b80156110425780601f1061101757610100808354040283529160200191611042565b820191906000526020600020905b81548152906001019060200180831161102557829003601f168201915b505050505081525050828281518110611084577f4e487b7100000000000000000000000000000000000000000000000000000000600052603260045260246000fd5b6020026020010181905250808061109a906123cd565b915050610e24565b5080925050509392505050565b60606000600683815481106110ed577f4e487b7100000000000000000000000000000000000000000000000000000000600052603260045260246000fd5b906000526020600020906004020160020180546111099061239b565b9050141561114c576040517f08c379a0000000000000000000000000000000000000000000000000000000008152600401611143906120a3565b60405180910390fd5b600460008381526020019081526020016000208054806020026020016040519081016040528092919081815260200182805480156111a957602002820191906000526020600020905b815481526020019060010190808311611195575b50505050509050919050565b60606000600683815481106111f3577f4e487b7100000000000000000000000000000000000000000000000000000000600052603260045260246000fd5b9060005260206000209060040201600201805461120f9061239b565b90501415611252576040517f08c379a0000000000000000000000000000000000000000000000000000000008152600401611249906120a3565b60405180910390fd5b600560008381526020019081526020016000208054806020026020016040519081016040528092919081815260200182805480156112af57602002820191906000526020600020905b81548152602001906001019080831161129b575b50505050509050919050565b600681815481106112cb57600080fd5b90600052602060002090600402016000915090508060000154908060010160009054906101000a900473ffffffffffffffffffffffffffffffffffffffff169080600201805461131a9061239b565b80601f01602080910402602001604051908101604052809291908181526020018280546113469061239b565b80156113935780601f1061136857610100808354040283529160200191611393565b820191906000526020600020905b81548152906001019060200180831161137657829003601f168201915b5050505050908060030180546113a89061239b565b80601f01602080910402602001604051908101604052809291908181526020018280546113d49061239b565b80156114215780601f106113f657610100808354040283529160200191611421565b820191906000526020600020905b81548152906001019060200180831161140457829003601f168201915b5050505050905084565b6005602052816000526040600020818154811061144757600080fd5b90600052602060002001600091509150505481565b60015481565b6060600083101580156114755750600082115b6114b4576040517f08c379a00000000000000000000000000000000000000000000000000000000081526004016114ab90612123565b60405180910390fd5b600083836114c291906122c8565b90506006805490508111156114da5760068054905090505b60008167ffffffffffffffff81111561151c577f4e487b7100000000000000000000000000000000000000000000000000000000600052604160045260246000fd5b60405190808252806020026020018201604052801561155557816020015b611542611937565b81526020019060019003908161153a5790505b50905060005b8281101561179c57600681876115719190612272565b815481106115a8577f4e487b7100000000000000000000000000000000000000000000000000000000600052603260045260246000fd5b9060005260206000209060040201604051806080016040529081600082015481526020016001820160009054906101000a900473ffffffffffffffffffffffffffffffffffffffff1673ffffffffffffffffffffffffffffffffffffffff1673ffffffffffffffffffffffffffffffffffffffff1681526020016002820180546116319061239b565b80601f016020809104026020016040519081016040528092919081815260200182805461165d9061239b565b80156116aa5780601f1061167f576101008083540402835291602001916116aa565b820191906000526020600020905b81548152906001019060200180831161168d57829003601f168201915b505050505081526020016003820180546116c39061239b565b80601f01602080910402602001604051908101604052809291908181526020018280546116ef9061239b565b801561173c5780601f106117115761010080835404028352916020019161173c565b820191906000526020600020905b81548152906001019060200180831161171f57829003601f168201915b50505050508152505082828151811061177e577f4e487b7100000000000000000000000000000000000000000000000000000000600052603260045260246000fd5b60200260200101819052508080611794906123cd565b91505061155b565b50809250505092915050565b60036020528160005260406000206020528060005260406000206000915091509054906101000a900460ff1681565b60026020528060005260406000206000915090508060000154908060010160009054906101000a900473ffffffffffffffffffffffffffffffffffffffff16908060020180546118269061239b565b80601f01602080910402602001604051908101604052809291908181526020018280546118529061239b565b801561189f5780601f106118745761010080835404028352916020019161189f565b820191906000526020600020905b81548152906001019060200180831161188257829003601f168201915b5050505050908060030180546118b49061239b565b80601f01602080910402602001604051908101604052809291908181526020018280546118e09061239b565b801561192d5780601f106119025761010080835404028352916020019161192d565b820191906000526020600020905b81548152906001019060200180831161191057829003601f168201915b5050505050905084565b604051806080016040528060008152602001600073ffffffffffffffffffffffffffffffffffffffff16815260200160608152602001606081525090565b8280546119819061239b565b90600052602060002090601f0160209004810192826119a357600085556119ea565b82601f106119bc57805160ff19168380011785556119ea565b828001600101855582156119ea579182015b828111156119e95782518255916020019190600101906119ce565b5b5090506119f791906119fb565b5090565b5b80821115611a145760008160009055506001016119fc565b5090565b600081359050611a2781612485565b92915050565b600081519050611a3c8161249c565b92915050565b60008083601f840112611a5457600080fd5b8235905067ffffffffffffffff811115611a6d57600080fd5b602083019150836001820283011115611a8557600080fd5b9250929050565b600081359050611a9b816124b3565b92915050565b60008060408385031215611ab457600080fd5b6000611ac285828601611a18565b9250506020611ad385828601611a8c565b9150509250929050565b600080600060608486031215611af257600080fd5b6000611b0086828701611a18565b9350506020611b1186828701611a8c565b9250506040611b2286828701611a8c565b9150509250925092565b600060208284031215611b3e57600080fd5b6000611b4c84828501611a2d565b91505092915050565b60008060008060408587031215611b6b57600080fd5b600085013567ffffffffffffffff811115611b8557600080fd5b611b9187828801611a42565b9450945050602085013567ffffffffffffffff811115611bb057600080fd5b611bbc87828801611a42565b925092505092959194509250565b600060208284031215611bdc57600080fd5b6000611bea84828501611a8c565b91505092915050565b60008060408385031215611c0657600080fd5b6000611c1485828601611a8c565b9250506020611c2585828601611a8c565b9150509250929050565b6000611c3b8383611f1c565b905092915050565b6000611c4f8383611ff0565b60208301905092915050565b611c64816122fc565b82525050565b611c73816122fc565b82525050565b6000611c84826121f3565b611c8e818561222e565b935083602082028501611ca0856121d3565b8060005b85811015611cdc5784840389528151611cbd8582611c2f565b9450611cc883612214565b925060208a01995050600181019050611ca4565b50829750879550505050505092915050565b6000611cf9826121fe565b611d03818561223f565b9350611d0e836121e3565b8060005b83811015611d3f578151611d268882611c43565b9750611d3183612221565b925050600181019050611d12565b5085935050505092915050565b611d558161230e565b82525050565b611d6481612344565b82525050565b6000611d7582612209565b611d7f8185612250565b9350611d8f818560208601612368565b611d9881612474565b840191505092915050565b6000611dae82612209565b611db88185612261565b9350611dc8818560208601612368565b611dd181612474565b840191505092915050565b6000611de9601b83612261565b91507f5f5f5f436f75727365206e6f7420726567697374657265645f5f5f00000000006000830152602082019050919050565b6000611e29602083612261565b91507f5f5f5f496e737469747574696f6e206e6f7420726567697374657265645f5f5f6000830152602082019050919050565b6000611e69601683612261565b91507f5f5f5f4e6f7420636f75727365206f776e65725f5f5f000000000000000000006000830152602082019050919050565b6000611ea9602083612261565b91507f5f5f5f436f7572736520616c7265616479207265636f676e697a6564215f5f5f6000830152602082019050919050565b6000611ee9601883612261565b91507f5f5f5f496e76616c696420506172616d61746572735f5f5f00000000000000006000830152602082019050919050565b6000608083016000830151611f346000860182611ff0565b506020830151611f476020860182611c5b565b5060408301518482036040860152611f5f8282611d6a565b91505060608301518482036060860152611f798282611d6a565b9150508091505092915050565b6000608083016000830151611f9e6000860182611ff0565b506020830151611fb16020860182611c5b565b5060408301518482036040860152611fc98282611d6a565b91505060608301518482036060860152611fe38282611d6a565b9150508091505092915050565b611ff98161233a565b82525050565b6120088161233a565b82525050565b60006020820190506120236000830184611c6a565b92915050565b600060208201905081810360008301526120438184611c79565b905092915050565b600060208201905081810360008301526120658184611cee565b905092915050565b60006020820190506120826000830184611d4c565b92915050565b600060208201905061209d6000830184611d5b565b92915050565b600060208201905081810360008301526120bc81611ddc565b9050919050565b600060208201905081810360008301526120dc81611e1c565b9050919050565b600060208201905081810360008301526120fc81611e5c565b9050919050565b6000602082019050818103600083015261211c81611e9c565b9050919050565b6000602082019050818103600083015261213c81611edc565b9050919050565b6000602082019050818103600083015261215d8184611f86565b905092915050565b600060208201905061217a6000830184611fff565b92915050565b60006080820190506121956000830187611fff565b6121a26020830186611c6a565b81810360408301526121b48185611da3565b905081810360608301526121c88184611da3565b905095945050505050565b6000819050602082019050919050565b6000819050602082019050919050565b600081519050919050565b600081519050919050565b600081519050919050565b6000602082019050919050565b6000602082019050919050565b600082825260208201905092915050565b600082825260208201905092915050565b600082825260208201905092915050565b600082825260208201905092915050565b600061227d8261233a565b91506122888361233a565b9250827fffffffffffffffffffffffffffffffffffffffffffffffffffffffffffffffff038211156122bd576122bc612416565b5b828201905092915050565b60006122d38261233a565b91506122de8361233a565b9250828210156122f1576122f0612416565b5b828203905092915050565b60006123078261231a565b9050919050565b60008115159050919050565b600073ffffffffffffffffffffffffffffffffffffffff82169050919050565b6000819050919050565b600061234f82612356565b9050919050565b60006123618261231a565b9050919050565b60005b8381101561238657808201518184015260208101905061236b565b83811115612395576000848401525b50505050565b600060028204905060018216806123b357607f821691505b602082108114156123c7576123c6612445565b5b50919050565b60006123d88261233a565b91507fffffffffffffffffffffffffffffffffffffffffffffffffffffffffffffffff82141561240b5761240a612416565b5b600182019050919050565b7f4e487b7100000000000000000000000000000000000000000000000000000000600052601160045260246000fd5b7f4e487b7100000000000000000000000000000000000000000000000000000000600052602260045260246000fd5b6000601f19601f8301169050919050565b61248e816122fc565b811461249957600080fd5b50565b6124a58161230e565b81146124b057600080fd5b50565b6124bc8161233a565b81146124c757600080fd5b5056fea2646970667358221220816085c1a374ad4f3e28465f25ad105af753132377ffe42e3a44c1637f34211e64736f6c63430008000033",
  "immutableReferences": {},
  "source": "// SPDX-License-Identifier: UNLICENSED\r\npragma solidity ^0.8.0;\r\n\r\nimport \"./InstitutionRegistry.sol\";\r\n\r\ncontract CourseRegistry {\r\n    InstitutionRegistry public institutionRegistry;\r\n\r\n    constructor(address _institutionRegistry) {\r\n        institutionRegistry = InstitutionRegistry(_institutionRegistry);\r\n    }\r\n\r\n    uint public id = 0;\r\n    struct Course {\r\n        uint id;\r\n        address owner;\r\n        string courseName;\r\n        string courseFileHash;\r\n    }\r\n    mapping(uint => Course) public coursesDict;\r\n\r\n    //if course1 recognizes course2, then IsCourseRecognized[1][2] = true\r\n    mapping(uint => mapping(uint => bool)) public IsCourseRecognized;\r\n    //all courses that have recognized this course\r\n    mapping(uint => uint[]) public recognizingCourses;\r\n    //all courses that this course has recognized\r\n    mapping(uint => uint[]) public recognizedCourses;\r\n    //all courses list\r\n    Course[] public courses;\r\n    //all courses of an institution\r\n    mapping(address => Course[]) public coursesOfInstitution;\r\n\r\n    function registerCourse(\r\n        string calldata courseName,\r\n        string calldata courseFileHash\r\n    ) external returns (Course memory) {\r\n        bool isRegistered = institutionRegistry.registeredInstitution(\r\n            msg.sender\r\n        );\r\n        require(isRegistered, \"___Institution not registered___\");\r\n        require(\r\n            bytes(courseName).length != 0 && bytes(courseFileHash).length != 0,\r\n            \"___Invalid Paramaters___\"\r\n        );\r\n        Course memory newCourse = Course(\r\n            id,\r\n            msg.sender,\r\n            courseName,\r\n            courseFileHash\r\n        );\r\n        coursesDict[id] = newCourse;\r\n        courses.push(newCourse);\r\n        coursesOfInstitution[msg.sender].push(newCourse);\r\n        id++;\r\n        return newCourse;\r\n    }\r\n\r\n    function approveCourse(uint courseId, uint courseIdToRecognize) external {\r\n        bool isRegistered = institutionRegistry.registeredInstitution(\r\n            msg.sender\r\n        );\r\n        require(isRegistered, \"___Institution not registered___\");\r\n        //need this course belongs to this institution\r\n        require(\r\n            courses[courseId].owner == msg.sender,\r\n            \"___Not course owner___\"\r\n        );\r\n        //need this course is not approved by this courseId\r\n        require(\r\n            IsCourseRecognized[courseId][courseIdToRecognize] == false,\r\n            \"___Course already recognized!___\"\r\n        );\r\n        IsCourseRecognized[courseId][courseIdToRecognize] = true;\r\n        //add the course to the recognizingCourses array\r\n        recognizingCourses[courseId].push(courseIdToRecognize);\r\n        //add the course to the coursesRecognized array\r\n        recognizedCourses[courseIdToRecognize].push(courseId);\r\n    }\r\n\r\n    function getCourses(\r\n        uint from,\r\n        uint to\r\n    ) public view returns (Course[] memory) {\r\n        require(from >= 0 && to > 0, \"___Invalid Paramaters___\");\r\n        uint amount = to - from;\r\n        //if amount is greater than the length of the array, return the whole array\r\n        if (amount > courses.length) {\r\n            amount = courses.length;\r\n        }\r\n        Course[] memory _courses = new Course[](amount);\r\n\r\n        for (uint i = 0; i < amount; i++) {\r\n            _courses[i] = courses[from + i];\r\n        }\r\n        return _courses;\r\n    }\r\n\r\n    function getCoursesByInstitution(\r\n        address institutionAddress,\r\n        uint from,\r\n        uint to\r\n    ) external view returns (Course[] memory) {\r\n        require(from >= 0 && to > 0, \"___Invalid Paramaters___\");\r\n        uint amount = to - from;\r\n        //if amount is greater than the length of the array, return the whole array\r\n        if (amount > coursesOfInstitution[institutionAddress].length) {\r\n            amount = coursesOfInstitution[institutionAddress].length;\r\n        }\r\n        Course[] memory _courses = new Course[](amount);\r\n\r\n        for (uint i = 0; i < amount; i++) {\r\n            _courses[i] = coursesOfInstitution[institutionAddress][from + i];\r\n        }\r\n        return _courses;\r\n    }\r\n\r\n    function getRecognizingCoursesByCourseId(\r\n        uint courseId\r\n    ) external view returns (uint[] memory) {\r\n        require(\r\n            bytes(courses[courseId].courseName).length != 0,\r\n            \"___Course not registered___\"\r\n        );\r\n\r\n        return recognizingCourses[courseId];\r\n    }\r\n\r\n    function getRecognizedCoursesByCourseId(\r\n        uint courseId\r\n    ) external view returns (uint[] memory) {\r\n        require(\r\n            bytes(courses[courseId].courseName).length != 0,\r\n            \"___Course not registered___\"\r\n        );\r\n\r\n        return recognizedCourses[courseId];\r\n    }\r\n}\r\n",
  "sourcePath": "C:\\Users\\98611\\Desktop\\STUDY\\23T2UNSW\\COMP6452\\credit-transfer-dapp\\compiler\\contracts\\CourseRegistry.sol",
  "compiler": {
    "name": "solc",
    "version": "0.8.0+commit.c7dfd78e.Emscripten.clang"
  },
  "schemaVersion": "3.4.14",
  "updatedAt": "2023-07-04T05:52:37.938Z",
  "networkType": "ethereum",
  "devdoc": {
    "kind": "dev",
    "methods": {},
    "version": 1
  },
  "userdoc": {
    "kind": "user",
    "methods": {},
    "version": 1
  }
}