{
  "contractName": "CourseOperation",
  "abi": [
    {
      "inputs": [
        {
          "internalType": "address",
          "name": "_institutionRegistry",
          "type": "address"
        }
      ],
      "stateMutability": "nonpayable",
      "type": "constructor"
    },
    {
      "inputs": [
        {
          "internalType": "uint256",
          "name": "",
          "type": "uint256"
        },
        {
          "internalType": "uint256",
          "name": "",
          "type": "uint256"
        }
      ],
      "name": "approvedCourses",
      "outputs": [
        {
          "internalType": "uint256",
          "name": "",
          "type": "uint256"
        }
      ],
      "stateMutability": "view",
      "type": "function"
    },
    {
      "inputs": [
        {
          "internalType": "uint256",
          "name": "",
          "type": "uint256"
        }
      ],
      "name": "courses",
      "outputs": [
        {
          "internalType": "uint256",
          "name": "id",
          "type": "uint256"
        },
        {
          "internalType": "address",
          "name": "owner",
          "type": "address"
        },
        {
          "internalType": "string",
          "name": "courseName",
          "type": "string"
        },
        {
          "internalType": "string",
          "name": "courseFileHash",
          "type": "string"
        }
      ],
      "stateMutability": "view",
      "type": "function"
    },
    {
      "inputs": [
        {
          "internalType": "uint256",
          "name": "",
          "type": "uint256"
        }
      ],
      "name": "coursesDict",
      "outputs": [
        {
          "internalType": "uint256",
          "name": "id",
          "type": "uint256"
        },
        {
          "internalType": "address",
          "name": "owner",
          "type": "address"
        },
        {
          "internalType": "string",
          "name": "courseName",
          "type": "string"
        },
        {
          "internalType": "string",
          "name": "courseFileHash",
          "type": "string"
        }
      ],
      "stateMutability": "view",
      "type": "function"
    },
    {
      "inputs": [
        {
          "internalType": "uint256",
          "name": "",
          "type": "uint256"
        },
        {
          "internalType": "uint256",
          "name": "",
          "type": "uint256"
        }
      ],
      "name": "equivalentCourses",
      "outputs": [
        {
          "internalType": "bool",
          "name": "",
          "type": "bool"
        }
      ],
      "stateMutability": "view",
      "type": "function"
    },
    {
      "inputs": [],
      "name": "id",
      "outputs": [
        {
          "internalType": "uint256",
          "name": "",
          "type": "uint256"
        }
      ],
      "stateMutability": "view",
      "type": "function"
    },
    {
      "inputs": [],
      "name": "institutionRegistry",
      "outputs": [
        {
          "internalType": "contract InstitutionRegistry",
          "name": "",
          "type": "address"
        }
      ],
      "stateMutability": "view",
      "type": "function"
    },
    {
      "inputs": [
        {
          "internalType": "string",
          "name": "courseName",
          "type": "string"
        },
        {
          "internalType": "string",
          "name": "courseFileHash",
          "type": "string"
        }
      ],
      "name": "registerCourse",
      "outputs": [],
      "stateMutability": "nonpayable",
      "type": "function"
    },
    {
      "inputs": [
        {
          "internalType": "uint256",
          "name": "courseId",
          "type": "uint256"
        },
        {
          "internalType": "uint256",
          "name": "approveCourseId",
          "type": "uint256"
        }
      ],
      "name": "approveCourse",
      "outputs": [],
      "stateMutability": "nonpayable",
      "type": "function"
    },
    {
      "inputs": [
        {
          "internalType": "uint256",
          "name": "from",
          "type": "uint256"
        },
        {
          "internalType": "uint256",
          "name": "to",
          "type": "uint256"
        }
      ],
      "name": "getCourses",
      "outputs": [
        {
          "components": [
            {
              "internalType": "uint256",
              "name": "id",
              "type": "uint256"
            },
            {
              "internalType": "address",
              "name": "owner",
              "type": "address"
            },
            {
              "internalType": "string",
              "name": "courseName",
              "type": "string"
            },
            {
              "internalType": "string",
              "name": "courseFileHash",
              "type": "string"
            }
          ],
          "internalType": "struct CourseOperation.Course[]",
          "name": "",
          "type": "tuple[]"
        }
      ],
      "stateMutability": "view",
      "type": "function"
    },
    {
      "inputs": [
        {
          "internalType": "address",
          "name": "institutionAddress",
          "type": "address"
        }
      ],
      "name": "getCourseByInstitution",
      "outputs": [
        {
          "components": [
            {
              "internalType": "uint256",
              "name": "id",
              "type": "uint256"
            },
            {
              "internalType": "address",
              "name": "owner",
              "type": "address"
            },
            {
              "internalType": "string",
              "name": "courseName",
              "type": "string"
            },
            {
              "internalType": "string",
              "name": "courseFileHash",
              "type": "string"
            }
          ],
          "internalType": "struct CourseOperation.Course[]",
          "name": "",
          "type": "tuple[]"
        }
      ],
      "stateMutability": "view",
      "type": "function"
    },
    {
      "inputs": [
        {
          "internalType": "uint256",
          "name": "courseId",
          "type": "uint256"
        }
      ],
      "name": "getApprovedCourses",
      "outputs": [
        {
          "components": [
            {
              "internalType": "uint256",
              "name": "id",
              "type": "uint256"
            },
            {
              "internalType": "address",
              "name": "owner",
              "type": "address"
            },
            {
              "internalType": "string",
              "name": "courseName",
              "type": "string"
            },
            {
              "internalType": "string",
              "name": "courseFileHash",
              "type": "string"
            }
          ],
          "internalType": "struct CourseOperation.Course[]",
          "name": "",
          "type": "tuple[]"
        }
      ],
      "stateMutability": "view",
      "type": "function"
    }
  ],
  "bytecode": "0x608060405260006001553480156200001657600080fd5b5060405162001e0e38038062001e0e83398181016040528101906200003c91906200009a565b806000806101000a81548173ffffffffffffffffffffffffffffffffffffffff021916908373ffffffffffffffffffffffffffffffffffffffff1602179055505062000114565b6000815190506200009481620000fa565b92915050565b600060208284031215620000ad57600080fd5b6000620000bd8482850162000083565b91505092915050565b6000620000d382620000da565b9050919050565b600073ffffffffffffffffffffffffffffffffffffffff82169050919050565b6200010581620000c6565b81146200011157600080fd5b50565b611cea80620001246000396000f3fe608060405234801561001057600080fd5b50600436106100a95760003560e01c806396f979d21161007157806396f979d2146101645780639eebbfd314610197578063af640d0f146101c7578063c2776fc8146101e5578063ca53278414610215578063e71509ea14610245576100a9565b80630fd88c7a146100ae57806318db3b27146100ca5780631b1fcb04146100e65780631e79f28e14610104578063337b2c8a14610134575b600080fd5b6100c860048036038101906100c3919061149c565b610278565b005b6100e460048036038101906100df919061153a565b6105a8565b005b6100ee610864565b6040516100fb91906118cd565b60405180910390f35b61011e6004803603810190610119919061153a565b610888565b60405161012b91906118b2565b60405180910390f35b61014e6004803603810190610149919061144a565b6108b7565b60405161015b9190611890565b60405180910390f35b61017e60048036038101906101799190611511565b6108be565b60405161018e94939291906119a3565b60405180910390f35b6101b160048036038101906101ac9190611511565b610a2e565b6040516101be9190611890565b60405180910390f35b6101cf610e03565b6040516101dc9190611988565b60405180910390f35b6101ff60048036038101906101fa919061153a565b610e09565b60405161020c9190611890565b60405180910390f35b61022f600480360381019061022a919061153a565b61114f565b60405161023c9190611988565b60405180910390f35b61025f600480360381019061025a9190611511565b611180565b60405161026f94939291906119a3565b60405180910390f35b60008060009054906101000a900473ffffffffffffffffffffffffffffffffffffffff1673ffffffffffffffffffffffffffffffffffffffff1663727fef62336040518263ffffffff1660e01b81526004016102d49190611875565b60206040518083038186803b1580156102ec57600080fd5b505afa158015610300573d6000803e3d6000fd5b505050506040513d601f19601f820116820180604052508101906103249190611473565b905080610366576040517f08c379a000000000000000000000000000000000000000000000000000000000815260040161035d90611908565b60405180910390fd5b6000604051806080016040528060015481526020013373ffffffffffffffffffffffffffffffffffffffff16815260200187878080601f016020809104026020016040519081016040528093929190818152602001838380828437600081840152601f19601f82011690508083019250505050505050815260200185858080601f016020809104026020016040519081016040528093929190818152602001838380828437600081840152601f19601f820116905080830192505050505050508152509050806002600060015481526020019081526020016000206000820151816000015560208201518160010160006101000a81548173ffffffffffffffffffffffffffffffffffffffff021916908373ffffffffffffffffffffffffffffffffffffffff16021790555060408201518160020190805190602001906104ae9291906112e0565b5060608201518160030190805190602001906104cb9291906112e0565b5090505060058190806001815401808255809150506001900390600052602060002090600402016000909190919091506000820151816000015560208201518160010160006101000a81548173ffffffffffffffffffffffffffffffffffffffff021916908373ffffffffffffffffffffffffffffffffffffffff16021790555060408201518160020190805190602001906105689291906112e0565b5060608201518160030190805190602001906105859291906112e0565b5050506001600081548092919061059b90611bb7565b9190505550505050505050565b60008060009054906101000a900473ffffffffffffffffffffffffffffffffffffffff1673ffffffffffffffffffffffffffffffffffffffff1663727fef62336040518263ffffffff1660e01b81526004016106049190611875565b60206040518083038186803b15801561061c57600080fd5b505afa158015610630573d6000803e3d6000fd5b505050506040513d601f19601f820116820180604052508101906106549190611473565b90508015610697576040517f08c379a000000000000000000000000000000000000000000000000000000000815260040161068e90611908565b60405180910390fd5b3373ffffffffffffffffffffffffffffffffffffffff16600584815481106106e8577f4e487b7100000000000000000000000000000000000000000000000000000000600052603260045260246000fd5b906000526020600020906004020160010160009054906101000a900473ffffffffffffffffffffffffffffffffffffffff1673ffffffffffffffffffffffffffffffffffffffff1614610770576040517f08c379a000000000000000000000000000000000000000000000000000000000815260040161076790611948565b60405180910390fd5b6000151560036000858152602001908152602001600020600084815260200190815260200160002060009054906101000a900460ff161515146107e8576040517f08c379a00000000000000000000000000000000000000000000000000000000081526004016107df90611928565b60405180910390fd5b600160036000858152602001908152602001600020600084815260200190815260200160002060006101000a81548160ff02191690831515021790555060046000848152602001908152602001600020829080600181540180825580915050600190039060005260206000200160009091909190915055505050565b60008054906101000a900473ffffffffffffffffffffffffffffffffffffffff1681565b60036020528160005260406000206020528060005260406000206000915091509054906101000a900460ff1681565b6060919050565b600581815481106108ce57600080fd5b90600052602060002090600402016000915090508060000154908060010160009054906101000a900473ffffffffffffffffffffffffffffffffffffffff169080600201805461091d90611b85565b80601f016020809104026020016040519081016040528092919081815260200182805461094990611b85565b80156109965780601f1061096b57610100808354040283529160200191610996565b820191906000526020600020905b81548152906001019060200180831161097957829003601f168201915b5050505050908060030180546109ab90611b85565b80601f01602080910402602001604051908101604052809291908181526020018280546109d790611b85565b8015610a245780601f106109f957610100808354040283529160200191610a24565b820191906000526020600020905b815481529060010190602001808311610a0757829003601f168201915b5050505050905084565b6060600060058381548110610a6c577f4e487b7100000000000000000000000000000000000000000000000000000000600052603260045260246000fd5b90600052602060002090600402016002018054610a8890611b85565b90501415610acb576040517f08c379a0000000000000000000000000000000000000000000000000000000008152600401610ac2906118e8565b60405180910390fd5b60006004600084815260200190815260200160002080549050905060008167ffffffffffffffff811115610b28577f4e487b7100000000000000000000000000000000000000000000000000000000600052604160045260246000fd5b604051908082528060200260200182016040528015610b6157816020015b610b4e611366565b815260200190600190039081610b465790505b50905060005b82811015610df8576000600460008781526020019081526020016000208281548110610bbc577f4e487b7100000000000000000000000000000000000000000000000000000000600052603260045260246000fd5b9060005260206000200154905060058181548110610c03577f4e487b7100000000000000000000000000000000000000000000000000000000600052603260045260246000fd5b9060005260206000209060040201604051806080016040529081600082015481526020016001820160009054906101000a900473ffffffffffffffffffffffffffffffffffffffff1673ffffffffffffffffffffffffffffffffffffffff1673ffffffffffffffffffffffffffffffffffffffff168152602001600282018054610c8c90611b85565b80601f0160208091040260200160405190810160405280929190818152602001828054610cb890611b85565b8015610d055780601f10610cda57610100808354040283529160200191610d05565b820191906000526020600020905b815481529060010190602001808311610ce857829003601f168201915b50505050508152602001600382018054610d1e90611b85565b80601f0160208091040260200160405190810160405280929190818152602001828054610d4a90611b85565b8015610d975780601f10610d6c57610100808354040283529160200191610d97565b820191906000526020600020905b815481529060010190602001808311610d7a57829003601f168201915b505050505081525050838381518110610dd9577f4e487b7100000000000000000000000000000000000000000000000000000000600052603260045260246000fd5b6020026020010181905250508080610df090611bb7565b915050610b67565b508092505050919050565b60015481565b606060008310158015610e1c5750600082115b610e5b576040517f08c379a0000000000000000000000000000000000000000000000000000000008152600401610e5290611968565b60405180910390fd5b60008383610e699190611ab2565b9050600580549050811115610e815760058054905090505b60008167ffffffffffffffff811115610ec3577f4e487b7100000000000000000000000000000000000000000000000000000000600052604160045260246000fd5b604051908082528060200260200182016040528015610efc57816020015b610ee9611366565b815260200190600190039081610ee15790505b50905060005b828110156111435760058187610f189190611a5c565b81548110610f4f577f4e487b7100000000000000000000000000000000000000000000000000000000600052603260045260246000fd5b9060005260206000209060040201604051806080016040529081600082015481526020016001820160009054906101000a900473ffffffffffffffffffffffffffffffffffffffff1673ffffffffffffffffffffffffffffffffffffffff1673ffffffffffffffffffffffffffffffffffffffff168152602001600282018054610fd890611b85565b80601f016020809104026020016040519081016040528092919081815260200182805461100490611b85565b80156110515780601f1061102657610100808354040283529160200191611051565b820191906000526020600020905b81548152906001019060200180831161103457829003601f168201915b5050505050815260200160038201805461106a90611b85565b80601f016020809104026020016040519081016040528092919081815260200182805461109690611b85565b80156110e35780601f106110b8576101008083540402835291602001916110e3565b820191906000526020600020905b8154815290600101906020018083116110c657829003601f168201915b505050505081525050828281518110611125577f4e487b7100000000000000000000000000000000000000000000000000000000600052603260045260246000fd5b6020026020010181905250808061113b90611bb7565b915050610f02565b50809250505092915050565b6004602052816000526040600020818154811061116b57600080fd5b90600052602060002001600091509150505481565b60026020528060005260406000206000915090508060000154908060010160009054906101000a900473ffffffffffffffffffffffffffffffffffffffff16908060020180546111cf90611b85565b80601f01602080910402602001604051908101604052809291908181526020018280546111fb90611b85565b80156112485780601f1061121d57610100808354040283529160200191611248565b820191906000526020600020905b81548152906001019060200180831161122b57829003601f168201915b50505050509080600301805461125d90611b85565b80601f016020809104026020016040519081016040528092919081815260200182805461128990611b85565b80156112d65780601f106112ab576101008083540402835291602001916112d6565b820191906000526020600020905b8154815290600101906020018083116112b957829003601f168201915b5050505050905084565b8280546112ec90611b85565b90600052602060002090601f01602090048101928261130e5760008555611355565b82601f1061132757805160ff1916838001178555611355565b82800160010185558215611355579182015b82811115611354578251825591602001919060010190611339565b5b50905061136291906113a4565b5090565b604051806080016040528060008152602001600073ffffffffffffffffffffffffffffffffffffffff16815260200160608152602001606081525090565b5b808211156113bd5760008160009055506001016113a5565b5090565b6000813590506113d081611c6f565b92915050565b6000815190506113e581611c86565b92915050565b60008083601f8401126113fd57600080fd5b8235905067ffffffffffffffff81111561141657600080fd5b60208301915083600182028301111561142e57600080fd5b9250929050565b60008135905061144481611c9d565b92915050565b60006020828403121561145c57600080fd5b600061146a848285016113c1565b91505092915050565b60006020828403121561148557600080fd5b6000611493848285016113d6565b91505092915050565b600080600080604085870312156114b257600080fd5b600085013567ffffffffffffffff8111156114cc57600080fd5b6114d8878288016113eb565b9450945050602085013567ffffffffffffffff8111156114f757600080fd5b611503878288016113eb565b925092505092959194509250565b60006020828403121561152357600080fd5b600061153184828501611435565b91505092915050565b6000806040838503121561154d57600080fd5b600061155b85828601611435565b925050602061156c85828601611435565b9150509250929050565b600061158283836117ed565b905092915050565b61159381611ae6565b82525050565b6115a281611ae6565b82525050565b60006115b382611a06565b6115bd8185611a29565b9350836020820285016115cf856119f6565b8060005b8581101561160b57848403895281516115ec8582611576565b94506115f783611a1c565b925060208a019950506001810190506115d3565b50829750879550505050505092915050565b61162681611af8565b82525050565b61163581611b2e565b82525050565b600061164682611a11565b6116508185611a3a565b9350611660818560208601611b52565b61166981611c5e565b840191505092915050565b600061167f82611a11565b6116898185611a4b565b9350611699818560208601611b52565b6116a281611c5e565b840191505092915050565b60006116ba601b83611a4b565b91507f5f5f5f436f75727365206e6f7420726567697374657265645f5f5f00000000006000830152602082019050919050565b60006116fa602083611a4b565b91507f5f5f5f496e737469747574696f6e206e6f7420726567697374657265645f5f5f6000830152602082019050919050565b600061173a601683611a4b565b91507f5f5f5f416c726561647920617070726f7665645f5f5f000000000000000000006000830152602082019050919050565b600061177a601683611a4b565b91507f5f5f5f4e6f7420636f75727365206f776e65725f5f5f000000000000000000006000830152602082019050919050565b60006117ba601883611a4b565b91507f5f5f5f496e76616c696420506172616d61746572735f5f5f00000000000000006000830152602082019050919050565b60006080830160008301516118056000860182611857565b506020830151611818602086018261158a565b5060408301518482036040860152611830828261163b565b9150506060830151848203606086015261184a828261163b565b9150508091505092915050565b61186081611b24565b82525050565b61186f81611b24565b82525050565b600060208201905061188a6000830184611599565b92915050565b600060208201905081810360008301526118aa81846115a8565b905092915050565b60006020820190506118c7600083018461161d565b92915050565b60006020820190506118e2600083018461162c565b92915050565b60006020820190508181036000830152611901816116ad565b9050919050565b60006020820190508181036000830152611921816116ed565b9050919050565b600060208201905081810360008301526119418161172d565b9050919050565b600060208201905081810360008301526119618161176d565b9050919050565b60006020820190508181036000830152611981816117ad565b9050919050565b600060208201905061199d6000830184611866565b92915050565b60006080820190506119b86000830187611866565b6119c56020830186611599565b81810360408301526119d78185611674565b905081810360608301526119eb8184611674565b905095945050505050565b6000819050602082019050919050565b600081519050919050565b600081519050919050565b6000602082019050919050565b600082825260208201905092915050565b600082825260208201905092915050565b600082825260208201905092915050565b6000611a6782611b24565b9150611a7283611b24565b9250827fffffffffffffffffffffffffffffffffffffffffffffffffffffffffffffffff03821115611aa757611aa6611c00565b5b828201905092915050565b6000611abd82611b24565b9150611ac883611b24565b925082821015611adb57611ada611c00565b5b828203905092915050565b6000611af182611b04565b9050919050565b60008115159050919050565b600073ffffffffffffffffffffffffffffffffffffffff82169050919050565b6000819050919050565b6000611b3982611b40565b9050919050565b6000611b4b82611b04565b9050919050565b60005b83811015611b70578082015181840152602081019050611b55565b83811115611b7f576000848401525b50505050565b60006002820490506001821680611b9d57607f821691505b60208210811415611bb157611bb0611c2f565b5b50919050565b6000611bc282611b24565b91507fffffffffffffffffffffffffffffffffffffffffffffffffffffffffffffffff821415611bf557611bf4611c00565b5b600182019050919050565b7f4e487b7100000000000000000000000000000000000000000000000000000000600052601160045260246000fd5b7f4e487b7100000000000000000000000000000000000000000000000000000000600052602260045260246000fd5b6000601f19601f8301169050919050565b611c7881611ae6565b8114611c8357600080fd5b50565b611c8f81611af8565b8114611c9a57600080fd5b50565b611ca681611b24565b8114611cb157600080fd5b5056fea26469706673582212206e25129fd45e3af58705cc4c7aba50866742828b483d646472cf6a2adaf37e6964736f6c63430008000033",
  "immutableReferences": {},
  "source": "// SPDX-License-Identifier: UNLICENSED\r\npragma solidity ^0.8.0;\r\n\r\nimport \"./InstitutionRegistry.sol\";\r\nimport \"./CourseRegistry.sol\";\r\n\r\ncontract CourseOperation {\r\n    InstitutionRegistry public institutionRegistry;\r\n\r\n    constructor(address _institutionRegistry) {\r\n        institutionRegistry = InstitutionRegistry(_institutionRegistry);\r\n    }\r\n\r\n    uint public id = 0;\r\n    struct Course {\r\n        uint id;\r\n        address owner;\r\n        string courseName;\r\n        string courseFileHash;\r\n    }\r\n    mapping(uint => Course) public coursesDict;\r\n    //shape like this: {1:{2:true,3:true},2:{1:true,3:true},3:{1:true,2:true}}\r\n    //means course 1 thinks course 2 and 3 are equivalent to course 1...\r\n    mapping(uint => mapping(uint => bool)) public equivalentCourses;\r\n    mapping(uint => uint[]) public approvedCourses;\r\n    Course[] public courses;\r\n\r\n    function registerCourse(\r\n        string calldata courseName,\r\n        string calldata courseFileHash\r\n    ) external {\r\n        bool isRegistered = institutionRegistry.registeredInstitution(\r\n            msg.sender\r\n        );\r\n        require(isRegistered, \"___Institution not registered___\");\r\n\r\n        Course memory newCourse = Course(\r\n            id,\r\n            msg.sender,\r\n            courseName,\r\n            courseFileHash\r\n        );\r\n        coursesDict[id] = newCourse;\r\n        courses.push(newCourse);\r\n        id++;\r\n    }\r\n\r\n    function approveCourse(uint courseId, uint approveCourseId) external {\r\n        bool isRegistered = institutionRegistry.registeredInstitution(\r\n            msg.sender\r\n        );\r\n        require(!isRegistered, \"___Institution not registered___\");\r\n        //need this course belongs to this institution\r\n        require(\r\n            courses[courseId].owner == msg.sender,\r\n            \"___Not course owner___\"\r\n        );\r\n        //need this course is not approved by this courseId\r\n        require(\r\n            equivalentCourses[courseId][approveCourseId] == false,\r\n            \"___Already approved___\"\r\n        );\r\n        equivalentCourses[courseId][approveCourseId] = true;\r\n        approvedCourses[courseId].push(approveCourseId);\r\n    }\r\n\r\n    function getCourses(\r\n        uint from,\r\n        uint to\r\n    ) public view returns (Course[] memory) {\r\n        require(from >= 0 && to > 0, \"___Invalid Paramaters___\");\r\n        uint amount = to - from;\r\n        //if amount is greater than the length of the array, return the whole array\r\n        if (amount > courses.length) {\r\n            amount = courses.length;\r\n        }\r\n        Course[] memory _courses = new Course[](amount);\r\n\r\n        for (uint i = 0; i < amount; i++) {\r\n            _courses[i] = courses[from + i];\r\n        }\r\n        return _courses;\r\n    }\r\n\r\n    function getCourseByInstitution(\r\n        address institutionAddress\r\n    ) external view returns (Course[] memory) {}\r\n\r\n    function getApprovedCourses(\r\n        uint courseId\r\n    ) external view returns (Course[] memory) {\r\n        require(\r\n            bytes(courses[courseId].courseName).length != 0,\r\n            \"___Course not registered___\"\r\n        );\r\n        uint len = approvedCourses[courseId].length;\r\n        Course[] memory _courses = new Course[](len);\r\n        for (uint i = 0; i < len; i++) {\r\n            uint _id = approvedCourses[courseId][i];\r\n            _courses[i] = courses[_id];\r\n        }\r\n\r\n        return _courses;\r\n    }\r\n}\r\n",
  "sourcePath": "C:\\Users\\98611\\Desktop\\STUDY\\23T2UNSW\\COMP6452\\credit-transfer-dapp\\compiler\\contracts\\CourseOperation.sol",
  "compiler": {
    "name": "solc",
    "version": "0.8.0+commit.c7dfd78e.Emscripten.clang"
  },
  "schemaVersion": "3.4.14",
  "updatedAt": "2023-07-04T05:52:32.846Z",
  "devdoc": {
    "kind": "dev",
    "methods": {},
    "version": 1
  },
  "userdoc": {
    "kind": "user",
    "methods": {},
    "version": 1
  }
}