{
  "contractName": "CourseRegistry",
  "abi": [
    {
      "inputs": [
        {
          "internalType": "address",
          "name": "_institutionRegistry",
          "type": "address"
        },
        {
          "internalType": "address",
          "name": "_oracleAddress",
          "type": "address"
        }
      ],
      "stateMutability": "nonpayable",
      "type": "constructor"
    },
    {
      "anonymous": false,
      "inputs": [
        {
          "indexed": false,
          "internalType": "uint256",
          "name": "courseId",
          "type": "uint256"
        },
        {
          "indexed": false,
          "internalType": "uint256",
          "name": "courseIdToRecognize",
          "type": "uint256"
        }
      ],
      "name": "ApproveCourseSuccessEvent",
      "type": "event"
    },
    {
      "anonymous": false,
      "inputs": [],
      "name": "CheckApproveFnTimeoutEvent",
      "type": "event"
    },
    {
      "anonymous": false,
      "inputs": [
        {
          "indexed": false,
          "internalType": "uint256",
          "name": "courseId",
          "type": "uint256"
        },
        {
          "indexed": false,
          "internalType": "uint256",
          "name": "courseIdToRecognize",
          "type": "uint256"
        }
      ],
      "name": "CheckDuplicateApproveEvent",
      "type": "event"
    },
    {
      "anonymous": false,
      "inputs": [
        {
          "indexed": false,
          "internalType": "uint256",
          "name": "courseId",
          "type": "uint256"
        },
        {
          "indexed": false,
          "internalType": "address",
          "name": "owner",
          "type": "address"
        },
        {
          "indexed": false,
          "internalType": "string",
          "name": "courseName",
          "type": "string"
        },
        {
          "indexed": false,
          "internalType": "string",
          "name": "courseFileHash",
          "type": "string"
        }
      ],
      "name": "CourseRegisterEvent",
      "type": "event"
    },
    {
      "inputs": [
        {
          "internalType": "uint256",
          "name": "",
          "type": "uint256"
        }
      ],
      "name": "courses",
      "outputs": [
        {
          "internalType": "uint256",
          "name": "id",
          "type": "uint256"
        },
        {
          "internalType": "address",
          "name": "owner",
          "type": "address"
        },
        {
          "internalType": "string",
          "name": "courseName",
          "type": "string"
        },
        {
          "internalType": "string",
          "name": "courseFileHash",
          "type": "string"
        }
      ],
      "stateMutability": "view",
      "type": "function",
      "constant": true
    },
    {
      "inputs": [],
      "name": "currRecognizing",
      "outputs": [
        {
          "internalType": "uint256",
          "name": "courseId",
          "type": "uint256"
        },
        {
          "internalType": "uint256",
          "name": "courseIdToRecognize",
          "type": "uint256"
        }
      ],
      "stateMutability": "view",
      "type": "function",
      "constant": true
    },
    {
      "inputs": [],
      "name": "institutionRegistry",
      "outputs": [
        {
          "internalType": "contract InstitutionRegistry",
          "name": "",
          "type": "address"
        }
      ],
      "stateMutability": "view",
      "type": "function",
      "constant": true
    },
    {
      "inputs": [],
      "name": "isInUse",
      "outputs": [
        {
          "internalType": "bool",
          "name": "",
          "type": "bool"
        }
      ],
      "stateMutability": "view",
      "type": "function",
      "constant": true
    },
    {
      "inputs": [],
      "name": "oracleAddress",
      "outputs": [
        {
          "internalType": "address",
          "name": "",
          "type": "address"
        }
      ],
      "stateMutability": "view",
      "type": "function",
      "constant": true
    },
    {
      "inputs": [
        {
          "internalType": "string",
          "name": "courseName",
          "type": "string"
        },
        {
          "internalType": "string",
          "name": "courseFileHash",
          "type": "string"
        }
      ],
      "name": "registerCourse",
      "outputs": [
        {
          "components": [
            {
              "internalType": "uint256",
              "name": "id",
              "type": "uint256"
            },
            {
              "internalType": "address",
              "name": "owner",
              "type": "address"
            },
            {
              "internalType": "string",
              "name": "courseName",
              "type": "string"
            },
            {
              "internalType": "string",
              "name": "courseFileHash",
              "type": "string"
            },
            {
              "internalType": "uint256[]",
              "name": "recognizingCourses",
              "type": "uint256[]"
            }
          ],
          "internalType": "struct CourseRegistry.Course",
          "name": "",
          "type": "tuple"
        }
      ],
      "stateMutability": "nonpayable",
      "type": "function"
    },
    {
      "inputs": [
        {
          "internalType": "uint256",
          "name": "courseId",
          "type": "uint256"
        },
        {
          "internalType": "uint256",
          "name": "courseIdToRecognize",
          "type": "uint256"
        }
      ],
      "name": "recognize",
      "outputs": [],
      "stateMutability": "nonpayable",
      "type": "function"
    },
    {
      "inputs": [
        {
          "internalType": "bool",
          "name": "isDuplicate",
          "type": "bool"
        }
      ],
      "name": "deliverResultIsDuplicate",
      "outputs": [],
      "stateMutability": "nonpayable",
      "type": "function"
    },
    {
      "inputs": [
        {
          "internalType": "uint256",
          "name": "from",
          "type": "uint256"
        },
        {
          "internalType": "uint256",
          "name": "to",
          "type": "uint256"
        }
      ],
      "name": "getCourses",
      "outputs": [
        {
          "components": [
            {
              "internalType": "uint256",
              "name": "id",
              "type": "uint256"
            },
            {
              "internalType": "address",
              "name": "owner",
              "type": "address"
            },
            {
              "internalType": "string",
              "name": "courseName",
              "type": "string"
            },
            {
              "internalType": "string",
              "name": "courseFileHash",
              "type": "string"
            },
            {
              "internalType": "uint256[]",
              "name": "recognizingCourses",
              "type": "uint256[]"
            }
          ],
          "internalType": "struct CourseRegistry.Course[]",
          "name": "",
          "type": "tuple[]"
        }
      ],
      "stateMutability": "view",
      "type": "function",
      "constant": true
    },
    {
      "inputs": [
        {
          "internalType": "uint256",
          "name": "courseId",
          "type": "uint256"
        }
      ],
      "name": "getRecognizingCourses",
      "outputs": [
        {
          "internalType": "uint256[]",
          "name": "",
          "type": "uint256[]"
        }
      ],
      "stateMutability": "view",
      "type": "function",
      "constant": true
    }
  ],
  "bytecode": "0x60806040526000600560006101000a81548160ff0219169083151502179055503480156200002c57600080fd5b5060405162001f1738038062001f178339818101604052810190620000529190620000f2565b816000806101000a81548173ffffffffffffffffffffffffffffffffffffffff021916908373ffffffffffffffffffffffffffffffffffffffff16021790555080600160006101000a81548173ffffffffffffffffffffffffffffffffffffffff021916908373ffffffffffffffffffffffffffffffffffffffff160217905550505062000181565b600081519050620000ec8162000167565b92915050565b600080604083850312156200010657600080fd5b60006200011685828601620000db565b92505060206200012985828601620000db565b9150509250929050565b6000620001408262000147565b9050919050565b600073ffffffffffffffffffffffffffffffffffffffff82169050919050565b620001728162000133565b81146200017e57600080fd5b50565b611d8680620001916000396000f3fe608060405234801561001057600080fd5b506004361061009e5760003560e01c806396f979d21161006657806396f979d21461015c578063a89ae4ba1461018f578063c2776fc8146101ad578063c9ba8e20146101dd578063de6a1758146101fb5761009e565b806303d17fad146100a35780630fd88c7a146100c25780631b1fcb04146100f25780631e8654d5146101105780631f8cccac1461012c575b600080fd5b6100ab610217565b6040516100b9929190611a36565b60405180910390f35b6100dc60048036038101906100d79190611281565b610229565b6040516100e991906119c1565b60405180910390f35b6100fa6105dc565b60405161010791906118c6565b60405180910390f35b61012a6004803603810190610125919061131f565b610600565b005b610146600480360381019061014191906112f6565b6108c5565b6040516101539190611889565b60405180910390f35b610176600480360381019061017191906112f6565b610968565b60405161018694939291906119e3565b60405180910390f35b610197610ad8565b6040516101a4919061184c565b60405180910390f35b6101c760048036038101906101c2919061131f565b610afe565b6040516101d49190611867565b60405180910390f35b6101e5610e9c565b6040516101f291906118ab565b60405180910390f35b6102156004803603810190610210919061122f565b610eaf565b005b60038060000154908060010154905082565b610231611071565b60008054906101000a900473ffffffffffffffffffffffffffffffffffffffff1673ffffffffffffffffffffffffffffffffffffffff166383c0e354336040518263ffffffff1660e01b815260040161028a919061184c565b60206040518083038186803b1580156102a257600080fd5b505afa1580156102b6573d6000803e3d6000fd5b505050506040513d601f19601f820116820180604052508101906102da9190611258565b610319576040517f08c379a0000000000000000000000000000000000000000000000000000000008152600401610310906118e1565b60405180910390fd5b60008585905014158015610331575060008383905014155b610370576040517f08c379a000000000000000000000000000000000000000000000000000000000815260040161036790611941565b60405180910390fd5b60006040518060a0016040528060028054905081526020013373ffffffffffffffffffffffffffffffffffffffff16815260200187878080601f016020809104026020016040519081016040528093929190818152602001838380828437600081840152601f19601f82011690508083019250505050505050815260200185858080601f016020809104026020016040519081016040528093929190818152602001838380828437600081840152601f19601f820116905080830192505050505050508152602001600067ffffffffffffffff811115610479577f4e487b7100000000000000000000000000000000000000000000000000000000600052604160045260246000fd5b6040519080825280602002602001820160405280156104a75781602001602082028036833780820191505090505b50815250905060028190806001815401808255809150506001900390600052602060002090600502016000909190919091506000820151816000015560208201518160010160006101000a81548173ffffffffffffffffffffffffffffffffffffffff021916908373ffffffffffffffffffffffffffffffffffffffff16021790555060408201518160020190805190602001906105469291906110b6565b5060608201518160030190805190602001906105639291906110b6565b50608082015181600401908051906020019061058092919061113c565b5050507fa69a0b29c66bd894f677b5bc26c32a1ffe414be147e0dd21ecbc88f56989d55d81600001518260200151836040015184606001516040516105c894939291906119e3565b60405180910390a180915050949350505050565b60008054906101000a900473ffffffffffffffffffffffffffffffffffffffff1681565b60008054906101000a900473ffffffffffffffffffffffffffffffffffffffff1673ffffffffffffffffffffffffffffffffffffffff166383c0e354336040518263ffffffff1660e01b8152600401610659919061184c565b60206040518083038186803b15801561067157600080fd5b505afa158015610685573d6000803e3d6000fd5b505050506040513d601f19601f820116820180604052508101906106a99190611258565b6106e8576040517f08c379a00000000000000000000000000000000000000000000000000000000081526004016106df906118e1565b60405180910390fd5b813373ffffffffffffffffffffffffffffffffffffffff166002828154811061073a577f4e487b7100000000000000000000000000000000000000000000000000000000600052603260045260246000fd5b906000526020600020906005020160010160009054906101000a900473ffffffffffffffffffffffffffffffffffffffff1673ffffffffffffffffffffffffffffffffffffffff16146107c2576040517f08c379a00000000000000000000000000000000000000000000000000000000081526004016107b990611921565b60405180910390fd5b600560009054906101000a900460ff1615610812576040517f08c379a0000000000000000000000000000000000000000000000000000000008152600401610809906119a1565b60405180910390fd5b6001600560006101000a81548160ff021916908315150217905550604051806040016040528084815260200183815250600360008201518160000155602082015181600101559050507f085bc3a9d65742febd8cee3384f1c58642d32cc0256bd88be996413039df7335838360405161088c929190611a36565b60405180910390a17fe753b2ece1e6cee41bddbda28b3a7e94948ff1b6f694c2bdb78b50be1884f96260405160405180910390a1505050565b606060028281548110610901577f4e487b7100000000000000000000000000000000000000000000000000000000600052603260045260246000fd5b906000526020600020906005020160040180548060200260200160405190810160405280929190818152602001828054801561095c57602002820191906000526020600020905b815481526020019060010190808311610948575b50505050509050919050565b6002818154811061097857600080fd5b90600052602060002090600502016000915090508060000154908060010160009054906101000a900473ffffffffffffffffffffffffffffffffffffffff16908060020180546109c790611c38565b80601f01602080910402602001604051908101604052809291908181526020018280546109f390611c38565b8015610a405780601f10610a1557610100808354040283529160200191610a40565b820191906000526020600020905b815481529060010190602001808311610a2357829003601f168201915b505050505090806003018054610a5590611c38565b80601f0160208091040260200160405190810160405280929190818152602001828054610a8190611c38565b8015610ace5780601f10610aa357610100808354040283529160200191610ace565b820191906000526020600020905b815481529060010190602001808311610ab157829003601f168201915b5050505050905084565b600160009054906101000a900473ffffffffffffffffffffffffffffffffffffffff1681565b606060008310158015610b115750828210155b610b50576040517f08c379a0000000000000000000000000000000000000000000000000000000008152600401610b4790611961565b60405180910390fd5b60008383610b5e9190611b65565b9050600280549050811115610b765760028054905090505b60008167ffffffffffffffff811115610bb8577f4e487b7100000000000000000000000000000000000000000000000000000000600052604160045260246000fd5b604051908082528060200260200182016040528015610bf157816020015b610bde611071565b815260200190600190039081610bd65790505b50905060005b82811015610e905760028187610c0d9190611b0f565b81548110610c44577f4e487b7100000000000000000000000000000000000000000000000000000000600052603260045260246000fd5b90600052602060002090600502016040518060a0016040529081600082015481526020016001820160009054906101000a900473ffffffffffffffffffffffffffffffffffffffff1673ffffffffffffffffffffffffffffffffffffffff1673ffffffffffffffffffffffffffffffffffffffff168152602001600282018054610ccd90611c38565b80601f0160208091040260200160405190810160405280929190818152602001828054610cf990611c38565b8015610d465780601f10610d1b57610100808354040283529160200191610d46565b820191906000526020600020905b815481529060010190602001808311610d2957829003601f168201915b50505050508152602001600382018054610d5f90611c38565b80601f0160208091040260200160405190810160405280929190818152602001828054610d8b90611c38565b8015610dd85780601f10610dad57610100808354040283529160200191610dd8565b820191906000526020600020905b815481529060010190602001808311610dbb57829003601f168201915b5050505050815260200160048201805480602002602001604051908101604052809291908181526020018280548015610e3057602002820191906000526020600020905b815481526020019060010190808311610e1c575b505050505081525050828281518110610e72577f4e487b7100000000000000000000000000000000000000000000000000000000600052603260045260246000fd5b60200260200101819052508080610e8890611c6a565b915050610bf7565b50809250505092915050565b600560009054906101000a900460ff1681565b600160009054906101000a900473ffffffffffffffffffffffffffffffffffffffff1673ffffffffffffffffffffffffffffffffffffffff163373ffffffffffffffffffffffffffffffffffffffff1614610f3f576040517f08c379a0000000000000000000000000000000000000000000000000000000008152600401610f3690611981565b60405180910390fd5b600560009054906101000a900460ff16610f8e576040517f08c379a0000000000000000000000000000000000000000000000000000000008152600401610f8590611901565b60405180910390fd5b8061105357600260036000015481548110610fd2577f4e487b7100000000000000000000000000000000000000000000000000000000600052603260045260246000fd5b906000526020600020906005020160040160036001015490806001815401808255809150506001900390600052602060002001600090919091909150557fc6d81938d823af42706e9bb859b01b073d823c84e85b3d90cbe347bd6509cd0460036000015460036001015460405161104a929190611a36565b60405180910390a15b6000600560006101000a81548160ff02191690831515021790555050565b6040518060a0016040528060008152602001600073ffffffffffffffffffffffffffffffffffffffff1681526020016060815260200160608152602001606081525090565b8280546110c290611c38565b90600052602060002090601f0160209004810192826110e4576000855561112b565b82601f106110fd57805160ff191683800117855561112b565b8280016001018555821561112b579182015b8281111561112a57825182559160200191906001019061110f565b5b5090506111389190611189565b5090565b828054828255906000526020600020908101928215611178579160200282015b8281111561117757825182559160200191906001019061115c565b5b5090506111859190611189565b5090565b5b808211156111a257600081600090555060010161118a565b5090565b6000813590506111b581611d22565b92915050565b6000815190506111ca81611d22565b92915050565b60008083601f8401126111e257600080fd5b8235905067ffffffffffffffff8111156111fb57600080fd5b60208301915083600182028301111561121357600080fd5b9250929050565b60008135905061122981611d39565b92915050565b60006020828403121561124157600080fd5b600061124f848285016111a6565b91505092915050565b60006020828403121561126a57600080fd5b6000611278848285016111bb565b91505092915050565b6000806000806040858703121561129757600080fd5b600085013567ffffffffffffffff8111156112b157600080fd5b6112bd878288016111d0565b9450945050602085013567ffffffffffffffff8111156112dc57600080fd5b6112e8878288016111d0565b925092505092959194509250565b60006020828403121561130857600080fd5b60006113168482850161121a565b91505092915050565b6000806040838503121561133257600080fd5b60006113408582860161121a565b92505060206113518582860161121a565b9150509250929050565b60006113678383611726565b905092915050565b600061137b838361182e565b60208301905092915050565b61139081611b99565b82525050565b61139f81611b99565b82525050565b60006113b082611a7f565b6113ba8185611aba565b9350836020820285016113cc85611a5f565b8060005b8581101561140857848403895281516113e9858261135b565b94506113f483611aa0565b925060208a019950506001810190506113d0565b50829750879550505050505092915050565b600061142582611a8a565b61142f8185611acb565b935061143a83611a6f565b8060005b8381101561146b578151611452888261136f565b975061145d83611aad565b92505060018101905061143e565b5085935050505092915050565b600061148382611a8a565b61148d8185611adc565b935061149883611a6f565b8060005b838110156114c95781516114b0888261136f565b97506114bb83611aad565b92505060018101905061149c565b5085935050505092915050565b6114df81611bab565b82525050565b6114ee81611be1565b82525050565b60006114ff82611a95565b6115098185611aed565b9350611519818560208601611c05565b61152281611d11565b840191505092915050565b600061153882611a95565b6115428185611afe565b9350611552818560208601611c05565b61155b81611d11565b840191505092915050565b6000611573602083611afe565b91507f5f5f5f496e737469747574696f6e206e6f7420726567697374657265645f5f5f6000830152602082019050919050565b60006115b3601483611afe565b91507f5f5f5f4e6f7420496e2070726f636573735f5f5f0000000000000000000000006000830152602082019050919050565b60006115f3601683611afe565b91507f5f5f5f4e6f7420636f75727365206f776e65725f5f5f000000000000000000006000830152602082019050919050565b6000611633601883611afe565b91507f5f5f5f496e76616c696420706172616d65746572735f5f5f00000000000000006000830152602082019050919050565b6000611673601883611afe565b91507f5f5f5f496e76616c696420706172616d61746572735f5f5f00000000000000006000830152602082019050919050565b60006116b3601a83611afe565b91507f5f5f5f4f6e6c79206f7261636c652063616e2063616c6c5f5f5f0000000000006000830152602082019050919050565b60006116f3601083611afe565b91507f5f5f5f496e2070726f636573735f5f5f000000000000000000000000000000006000830152602082019050919050565b600060a08301600083015161173e600086018261182e565b5060208301516117516020860182611387565b506040830151848203604086015261176982826114f4565b9150506060830151848203606086015261178382826114f4565b9150506080830151848203608086015261179d828261141a565b9150508091505092915050565b600060a0830160008301516117c2600086018261182e565b5060208301516117d56020860182611387565b50604083015184820360408601526117ed82826114f4565b9150506060830151848203606086015261180782826114f4565b91505060808301518482036080860152611821828261141a565b9150508091505092915050565b61183781611bd7565b82525050565b61184681611bd7565b82525050565b60006020820190506118616000830184611396565b92915050565b6000602082019050818103600083015261188181846113a5565b905092915050565b600060208201905081810360008301526118a38184611478565b905092915050565b60006020820190506118c060008301846114d6565b92915050565b60006020820190506118db60008301846114e5565b92915050565b600060208201905081810360008301526118fa81611566565b9050919050565b6000602082019050818103600083015261191a816115a6565b9050919050565b6000602082019050818103600083015261193a816115e6565b9050919050565b6000602082019050818103600083015261195a81611626565b9050919050565b6000602082019050818103600083015261197a81611666565b9050919050565b6000602082019050818103600083015261199a816116a6565b9050919050565b600060208201905081810360008301526119ba816116e6565b9050919050565b600060208201905081810360008301526119db81846117aa565b905092915050565b60006080820190506119f8600083018761183d565b611a056020830186611396565b8181036040830152611a17818561152d565b90508181036060830152611a2b818461152d565b905095945050505050565b6000604082019050611a4b600083018561183d565b611a58602083018461183d565b9392505050565b6000819050602082019050919050565b6000819050602082019050919050565b600081519050919050565b600081519050919050565b600081519050919050565b6000602082019050919050565b6000602082019050919050565b600082825260208201905092915050565b600082825260208201905092915050565b600082825260208201905092915050565b600082825260208201905092915050565b600082825260208201905092915050565b6000611b1a82611bd7565b9150611b2583611bd7565b9250827fffffffffffffffffffffffffffffffffffffffffffffffffffffffffffffffff03821115611b5a57611b59611cb3565b5b828201905092915050565b6000611b7082611bd7565b9150611b7b83611bd7565b925082821015611b8e57611b8d611cb3565b5b828203905092915050565b6000611ba482611bb7565b9050919050565b60008115159050919050565b600073ffffffffffffffffffffffffffffffffffffffff82169050919050565b6000819050919050565b6000611bec82611bf3565b9050919050565b6000611bfe82611bb7565b9050919050565b60005b83811015611c23578082015181840152602081019050611c08565b83811115611c32576000848401525b50505050565b60006002820490506001821680611c5057607f821691505b60208210811415611c6457611c63611ce2565b5b50919050565b6000611c7582611bd7565b91507fffffffffffffffffffffffffffffffffffffffffffffffffffffffffffffffff821415611ca857611ca7611cb3565b5b600182019050919050565b7f4e487b7100000000000000000000000000000000000000000000000000000000600052601160045260246000fd5b7f4e487b7100000000000000000000000000000000000000000000000000000000600052602260045260246000fd5b6000601f19601f8301169050919050565b611d2b81611bab565b8114611d3657600080fd5b50565b611d4281611bd7565b8114611d4d57600080fd5b5056fea2646970667358221220434e6708a5541af90d15171ca02e75627dce5eb5e0e76733e0b7314c253a877d64736f6c63430008000033",
  "immutableReferences": {},
  "source": "// SPDX-License-Identifier: UNLICENSED\r\npragma solidity ^0.8.0;\r\n\r\nimport \"./InstitutionRegistry.sol\";\r\n\r\ncontract CourseRegistry {\r\n    InstitutionRegistry public institutionRegistry;\r\n    address public oracleAddress;\r\n\r\n    constructor(address _institutionRegistry, address _oracleAddress) {\r\n        institutionRegistry = InstitutionRegistry(_institutionRegistry);\r\n        oracleAddress = _oracleAddress;\r\n    }\r\n\r\n    // define structs\r\n    struct Course {\r\n        uint id;\r\n        address owner;\r\n        string courseName;\r\n        string courseFileHash;\r\n        uint[] recognizingCourses;\r\n    }\r\n    struct RecognizingDto {\r\n        uint courseId;\r\n        uint courseIdToRecognize;\r\n    }\r\n\r\n    //all courses list\r\n    Course[] public courses;\r\n\r\n    //store the current recognizing course id and the course id to recognize\r\n    RecognizingDto public currRecognizing;\r\n    //if in recognizing process, lock the approve function in case of reentrancy\r\n    bool public isInUse = false;\r\n\r\n    // define events\r\n    event CheckDuplicateApproveEvent(uint courseId, uint courseIdToRecognize);\r\n    event CheckApproveFnTimeoutEvent();\r\n    event ApproveCourseSuccessEvent(uint courseId, uint courseIdToRecognize);\r\n    event CourseRegisterEvent(\r\n        uint courseId,\r\n        address owner,\r\n        string courseName,\r\n        string courseFileHash\r\n    );\r\n\r\n    function registerCourse(\r\n        string calldata courseName,\r\n        string calldata courseFileHash\r\n    ) external onlyRegisteredInstitution returns (Course memory) {\r\n        require(\r\n            bytes(courseName).length != 0 && bytes(courseFileHash).length != 0,\r\n            \"___Invalid parameters___\"\r\n        );\r\n\r\n        Course memory newCourse = Course(\r\n            courses.length,\r\n            msg.sender,\r\n            courseName,\r\n            courseFileHash,\r\n            new uint[](0)\r\n        );\r\n        courses.push(newCourse);\r\n        //inform the server to add the course to the database\r\n        emit CourseRegisterEvent(\r\n            newCourse.id,\r\n            newCourse.owner,\r\n            newCourse.courseName,\r\n            newCourse.courseFileHash\r\n        );\r\n        return newCourse;\r\n    }\r\n\r\n    function recognize(\r\n        uint courseId,\r\n        uint courseIdToRecognize\r\n    )\r\n        external\r\n        onlyRegisteredInstitution\r\n        onlyCourseOwner(courseId)\r\n        onlyNotInuse\r\n    {\r\n        //lock the function\r\n        isInUse = true;\r\n        //store the course id and the course id to recognize\r\n        currRecognizing = RecognizingDto(courseId, courseIdToRecognize);\r\n        //inform the oracle to check if the course is already recognized\r\n        emit CheckDuplicateApproveEvent(courseId, courseIdToRecognize);\r\n        //inform the oracle to timeout the process after some time\r\n        emit CheckApproveFnTimeoutEvent();\r\n    }\r\n\r\n    //oracle calls this function to inform the contract the validation result\r\n    //if timeout, the oracle will call this function with isDuplicate = true\r\n    function deliverResultIsDuplicate(\r\n        bool isDuplicate\r\n    ) external onlyOracle onlyInuse {\r\n        //if not duplicate, add the course id to the recognizing course's recognizingCourses array\r\n        if (!isDuplicate) {\r\n            //if not duplicate, add the course id to the recognizing course's recognizingCourses array\r\n            courses[currRecognizing.courseId].recognizingCourses.push(\r\n                currRecognizing.courseIdToRecognize\r\n            );\r\n\r\n            //inform the oracle the process is done and close the timer for this process\r\n            emit ApproveCourseSuccessEvent(\r\n                currRecognizing.courseId,\r\n                currRecognizing.courseIdToRecognize\r\n            );\r\n        }\r\n        //unlock the function\r\n        isInUse = false;\r\n    }\r\n\r\n    function getCourses(\r\n        uint from,\r\n        uint to\r\n    ) public view returns (Course[] memory) {\r\n        require(from >= 0 && to >= from, \"___Invalid paramaters___\");\r\n        uint amount = to - from;\r\n\r\n        //if amount is greater than the length of the array, return the whole array\r\n        if (amount > courses.length) {\r\n            amount = courses.length;\r\n        }\r\n\r\n        Course[] memory _courses = new Course[](amount);\r\n\r\n        for (uint i = 0; i < amount; i++) {\r\n            _courses[i] = courses[from + i];\r\n        }\r\n        return _courses;\r\n    }\r\n\r\n    function getRecognizingCourses(\r\n        uint courseId\r\n    ) public view returns (uint[] memory) {\r\n        return courses[courseId].recognizingCourses;\r\n    }\r\n\r\n    //modifiers\r\n    modifier onlyRegisteredInstitution() {\r\n        require(\r\n            institutionRegistry.isInstitutionRegistered(msg.sender),\r\n            \"___Institution not registered___\"\r\n        );\r\n        _;\r\n    }\r\n    modifier onlyCourseOwner(uint courseId) {\r\n        require(\r\n            courses[courseId].owner == msg.sender,\r\n            \"___Not course owner___\"\r\n        );\r\n        _;\r\n    }\r\n\r\n    modifier onlyOracle() {\r\n        require(msg.sender == oracleAddress, \"___Only oracle can call___\");\r\n        _;\r\n    }\r\n\r\n    modifier onlyInuse() {\r\n        require(isInUse, \"___Not In process___\");\r\n        _;\r\n    }\r\n    modifier onlyNotInuse() {\r\n        require(!isInUse, \"___In process___\");\r\n        _;\r\n    }\r\n}\r\n",
  "sourcePath": "C:\\Users\\98611\\Desktop\\test\\credit-transfer-dapp\\contracts\\contracts\\CourseRegistry.sol",
  "compiler": {
    "name": "solc",
    "version": "0.8.0+commit.c7dfd78e.Emscripten.clang"
  },
  "schemaVersion": "3.4.14",
  "updatedAt": "2023-07-24T12:28:01.664Z",
  "networkType": "ethereum",
  "devdoc": {
    "kind": "dev",
    "methods": {},
    "version": 1
  },
  "userdoc": {
    "kind": "user",
    "methods": {},
    "version": 1
  }
}