{
  "contractName": "InstitutionRegistry",
  "abi": [
    {
      "inputs": [
        {
          "internalType": "uint256",
          "name": "",
          "type": "uint256"
        }
      ],
      "name": "institutionAddresses",
      "outputs": [
        {
          "internalType": "address",
          "name": "",
          "type": "address"
        }
      ],
      "stateMutability": "view",
      "type": "function",
      "constant": true
    },
    {
      "inputs": [
        {
          "internalType": "address",
          "name": "",
          "type": "address"
        }
      ],
      "name": "registeredInstitution",
      "outputs": [
        {
          "internalType": "bool",
          "name": "",
          "type": "bool"
        }
      ],
      "stateMutability": "view",
      "type": "function",
      "constant": true
    },
    {
      "inputs": [],
      "name": "registerInstitution",
      "outputs": [],
      "stateMutability": "nonpayable",
      "type": "function"
    },
    {
      "inputs": [],
      "name": "getAllInstitutions",
      "outputs": [
        {
          "internalType": "address[]",
          "name": "",
          "type": "address[]"
        }
      ],
      "stateMutability": "view",
      "type": "function",
      "constant": true
    }
  ],
  "bytecode": "0x608060405234801561001057600080fd5b50610601806100206000396000f3fe608060405234801561001057600080fd5b506004361061004c5760003560e01c80634104180e14610051578063618537641461006f578063727fef62146100795780637f416835146100a9575b600080fd5b6100596100d9565b60405161006691906104ae565b60405180910390f35b610077610167565b005b610093600480360381019061008e9190610338565b6102af565b6040516100a091906104d0565b60405180910390f35b6100c360048036038101906100be9190610361565b6102cf565b6040516100d09190610493565b60405180910390f35b6060600180548060200260200160405190810160405280929190818152602001828054801561015d57602002820191906000526020600020905b8160009054906101000a900473ffffffffffffffffffffffffffffffffffffffff1673ffffffffffffffffffffffffffffffffffffffff1681526020019060010190808311610113575b5050505050905090565b6000803373ffffffffffffffffffffffffffffffffffffffff1673ffffffffffffffffffffffffffffffffffffffff16815260200190815260200160002060009054906101000a900460ff16156101f3576040517f08c379a00000000000000000000000000000000000000000000000000000000081526004016101ea906104eb565b60405180910390fd5b60016000803373ffffffffffffffffffffffffffffffffffffffff1673ffffffffffffffffffffffffffffffffffffffff16815260200190815260200160002060006101000a81548160ff0219169083151502179055506001339080600181540180825580915050600190039060005260206000200160009091909190916101000a81548173ffffffffffffffffffffffffffffffffffffffff021916908373ffffffffffffffffffffffffffffffffffffffff160217905550565b60006020528060005260406000206000915054906101000a900460ff1681565b600181815481106102df57600080fd5b906000526020600020016000915054906101000a900473ffffffffffffffffffffffffffffffffffffffff1681565b60008135905061031d8161059d565b92915050565b600081359050610332816105b4565b92915050565b60006020828403121561034a57600080fd5b60006103588482850161030e565b91505092915050565b60006020828403121561037357600080fd5b600061038184828501610323565b91505092915050565b600061039683836103a2565b60208301905092915050565b6103ab81610555565b82525050565b6103ba81610555565b82525050565b60006103cb8261051b565b6103d58185610533565b93506103e08361050b565b8060005b838110156104115781516103f8888261038a565b975061040383610526565b9250506001810190506103e4565b5085935050505092915050565b61042781610567565b82525050565b600061043a602783610544565b91507f5f5f5f496e737469747574696f6e20697320616c72656164792072656769737460008301527f657265645f5f5f000000000000000000000000000000000000000000000000006020830152604082019050919050565b60006020820190506104a860008301846103b1565b92915050565b600060208201905081810360008301526104c881846103c0565b905092915050565b60006020820190506104e5600083018461041e565b92915050565b600060208201905081810360008301526105048161042d565b9050919050565b6000819050602082019050919050565b600081519050919050565b6000602082019050919050565b600082825260208201905092915050565b600082825260208201905092915050565b600061056082610573565b9050919050565b60008115159050919050565b600073ffffffffffffffffffffffffffffffffffffffff82169050919050565b6000819050919050565b6105a681610555565b81146105b157600080fd5b50565b6105bd81610593565b81146105c857600080fd5b5056fea2646970667358221220a887d8fb2674b3fdcfda6c2b12d21ee6017f0395435d674426892a5f947d30a064736f6c63430008000033",
  "immutableReferences": {},
  "source": "// SPDX-License-Identifier: UNLICENSED\r\npragma solidity ^0.8.0;\r\n\r\ncontract InstitutionRegistry {\r\n    mapping(address => bool) public registeredInstitution;\r\n    address[] public institutionAddresses;\r\n\r\n    function registerInstitution() public {\r\n        // Check if the institution is already registered\r\n        require(\r\n            !registeredInstitution[msg.sender],\r\n            \"___Institution is already registered___\"\r\n        );\r\n        // Add the institution to the mapping and add the address to the array\r\n        registeredInstitution[msg.sender] = true;\r\n        institutionAddresses.push(msg.sender);\r\n    }\r\n\r\n    function getAllInstitutions() external view returns (address[] memory) {\r\n        return institutionAddresses;\r\n    }\r\n}\r\n",
  "sourcePath": "C:\\Users\\98611\\Desktop\\STUDY\\23T2UNSW\\COMP6452\\credit-transfer-dapp\\compiler\\contracts\\InstitutionRegistry.sol",
  "compiler": {
    "name": "solc",
    "version": "0.8.0+commit.c7dfd78e.Emscripten.clang"
  },
  "schemaVersion": "3.4.14",
  "updatedAt": "2023-07-04T05:52:37.932Z",
  "networkType": "ethereum",
  "devdoc": {
    "kind": "dev",
    "methods": {},
    "version": 1
  },
  "userdoc": {
    "kind": "user",
    "methods": {},
    "version": 1
  }
}