{
  "contractName": "InstitutionRegistry",
  "abi": [
    {
      "anonymous": false,
      "inputs": [
        {
          "indexed": false,
          "internalType": "address",
          "name": "institutionAddress",
          "type": "address"
        },
        {
          "indexed": false,
          "internalType": "string",
          "name": "name",
          "type": "string"
        }
      ],
      "name": "InstitutionRegisterEvent",
      "type": "event"
    },
    {
      "inputs": [
        {
          "internalType": "address",
          "name": "",
          "type": "address"
        }
      ],
      "name": "isInstitutionRegistered",
      "outputs": [
        {
          "internalType": "bool",
          "name": "",
          "type": "bool"
        }
      ],
      "stateMutability": "view",
      "type": "function",
      "constant": true
    },
    {
      "inputs": [
        {
          "internalType": "uint256",
          "name": "",
          "type": "uint256"
        }
      ],
      "name": "registeredInstitutionList",
      "outputs": [
        {
          "internalType": "address",
          "name": "institutionAddress",
          "type": "address"
        },
        {
          "internalType": "string",
          "name": "name",
          "type": "string"
        }
      ],
      "stateMutability": "view",
      "type": "function",
      "constant": true
    },
    {
      "inputs": [
        {
          "internalType": "string",
          "name": "name",
          "type": "string"
        }
      ],
      "name": "registerInstitution",
      "outputs": [],
      "stateMutability": "nonpayable",
      "type": "function"
    },
    {
      "inputs": [
        {
          "internalType": "uint256",
          "name": "from",
          "type": "uint256"
        },
        {
          "internalType": "uint256",
          "name": "to",
          "type": "uint256"
        }
      ],
      "name": "getAllInstitutions",
      "outputs": [
        {
          "components": [
            {
              "internalType": "address",
              "name": "institutionAddress",
              "type": "address"
            },
            {
              "internalType": "string",
              "name": "name",
              "type": "string"
            }
          ],
          "internalType": "struct InstitutionRegistry.Institution[]",
          "name": "",
          "type": "tuple[]"
        }
      ],
      "stateMutability": "view",
      "type": "function",
      "constant": true
    }
  ],
  "bytecode": "0x608060405234801561001057600080fd5b50610ec4806100206000396000f3fe608060405234801561001057600080fd5b506004361061004c5760003560e01c806383c0e354146100515780638ef775e514610081578063ab66dc4f146100b2578063d0e15bca146100e2575b600080fd5b61006b60048036038101906100669190610812565b6100fe565b6040516100789190610ba1565b60405180910390f35b61009b60048036038101906100969190610880565b61011e565b6040516100a9929190610b4f565b60405180910390f35b6100cc60048036038101906100c791906108a9565b6101fa565b6040516100d99190610b7f565b60405180910390f35b6100fc60048036038101906100f7919061083b565b6104a3565b005b60006020528060005260406000206000915054906101000a900460ff1681565b6001818154811061012e57600080fd5b90600052602060002090600202016000915090508060000160009054906101000a900473ffffffffffffffffffffffffffffffffffffffff169080600101805461017790610d76565b80601f01602080910402602001604051908101604052809291908181526020018280546101a390610d76565b80156101f05780601f106101c5576101008083540402835291602001916101f0565b820191906000526020600020905b8154815290600101906020018083116101d357829003601f168201915b5050505050905082565b60606000831015801561020c57508282115b61024b576040517f08c379a000000000000000000000000000000000000000000000000000000000815260040161024290610bdc565b60405180910390fd5b600083836102599190610cb8565b90506001805490508111156102715760018054905090505b60008167ffffffffffffffff8111156102b3577f4e487b7100000000000000000000000000000000000000000000000000000000600052604160045260246000fd5b6040519080825280602002602001820160405280156102ec57816020015b6102d96106cb565b8152602001906001900390816102d15790505b50905060005b8281101561049757600181876103089190610c62565b8154811061033f577f4e487b7100000000000000000000000000000000000000000000000000000000600052603260045260246000fd5b90600052602060002090600202016040518060400160405290816000820160009054906101000a900473ffffffffffffffffffffffffffffffffffffffff1673ffffffffffffffffffffffffffffffffffffffff1673ffffffffffffffffffffffffffffffffffffffff1681526020016001820180546103be90610d76565b80601f01602080910402602001604051908101604052809291908181526020018280546103ea90610d76565b80156104375780601f1061040c57610100808354040283529160200191610437565b820191906000526020600020905b81548152906001019060200180831161041a57829003601f168201915b505050505081525050828281518110610479577f4e487b7100000000000000000000000000000000000000000000000000000000600052603260045260246000fd5b6020026020010181905250808061048f90610da8565b9150506102f2565b50809250505092915050565b6000803373ffffffffffffffffffffffffffffffffffffffff1673ffffffffffffffffffffffffffffffffffffffff16815260200190815260200160002060009054906101000a900460ff161561052f576040517f08c379a000000000000000000000000000000000000000000000000000000000815260040161052690610bbc565b60405180910390fd5b60016000803373ffffffffffffffffffffffffffffffffffffffff1673ffffffffffffffffffffffffffffffffffffffff16815260200190815260200160002060006101000a81548160ff021916908315150217905550600060405180604001604052803373ffffffffffffffffffffffffffffffffffffffff16815260200184848080601f016020809104026020016040519081016040528093929190818152602001838380828437600081840152601f19601f820116905080830192505050505050508152509050600181908060018154018082558091505060019003906000526020600020906002020160009091909190915060008201518160000160006101000a81548173ffffffffffffffffffffffffffffffffffffffff021916908373ffffffffffffffffffffffffffffffffffffffff16021790555060208201518160010190805190602001906106889291906106fb565b5050507f6d9b0371f8e55871cf6dfdb21171b3a1ab6c41930ad498a0d1dbd61388d173dd3384846040516106be93929190610b1d565b60405180910390a1505050565b6040518060400160405280600073ffffffffffffffffffffffffffffffffffffffff168152602001606081525090565b82805461070790610d76565b90600052602060002090601f0160209004810192826107295760008555610770565b82601f1061074257805160ff1916838001178555610770565b82800160010185558215610770579182015b8281111561076f578251825591602001919060010190610754565b5b50905061077d9190610781565b5090565b5b8082111561079a576000816000905550600101610782565b5090565b6000813590506107ad81610e60565b92915050565b60008083601f8401126107c557600080fd5b8235905067ffffffffffffffff8111156107de57600080fd5b6020830191508360018202830111156107f657600080fd5b9250929050565b60008135905061080c81610e77565b92915050565b60006020828403121561082457600080fd5b60006108328482850161079e565b91505092915050565b6000806020838503121561084e57600080fd5b600083013567ffffffffffffffff81111561086857600080fd5b610874858286016107b3565b92509250509250929050565b60006020828403121561089257600080fd5b60006108a0848285016107fd565b91505092915050565b600080604083850312156108bc57600080fd5b60006108ca858286016107fd565b92505060206108db858286016107fd565b9150509250929050565b60006108f18383610ae0565b905092915050565b61090281610cec565b82525050565b61091181610cec565b82525050565b600061092282610c0c565b61092c8185610c2f565b93508360208202850161093e85610bfc565b8060005b8581101561097a578484038952815161095b85826108e5565b945061096683610c22565b925060208a01995050600181019050610942565b50829750879550505050505092915050565b61099581610cfe565b82525050565b60006109a78385610c51565b93506109b4838584610d34565b6109bd83610e4f565b840190509392505050565b60006109d382610c17565b6109dd8185610c40565b93506109ed818560208601610d43565b6109f681610e4f565b840191505092915050565b6000610a0c82610c17565b610a168185610c51565b9350610a26818560208601610d43565b610a2f81610e4f565b840191505092915050565b6000610a47602783610c51565b91507f5f5f5f496e737469747574696f6e20697320616c72656164792072656769737460008301527f657265645f5f5f000000000000000000000000000000000000000000000000006020830152604082019050919050565b6000610aad601883610c51565b91507f5f5f5f496e76616c696420506172616d61746572735f5f5f00000000000000006000830152602082019050919050565b6000604083016000830151610af860008601826108f9565b5060208301518482036020860152610b1082826109c8565b9150508091505092915050565b6000604082019050610b326000830186610908565b8181036020830152610b4581848661099b565b9050949350505050565b6000604082019050610b646000830185610908565b8181036020830152610b768184610a01565b90509392505050565b60006020820190508181036000830152610b998184610917565b905092915050565b6000602082019050610bb6600083018461098c565b92915050565b60006020820190508181036000830152610bd581610a3a565b9050919050565b60006020820190508181036000830152610bf581610aa0565b9050919050565b6000819050602082019050919050565b600081519050919050565b600081519050919050565b6000602082019050919050565b600082825260208201905092915050565b600082825260208201905092915050565b600082825260208201905092915050565b6000610c6d82610d2a565b9150610c7883610d2a565b9250827fffffffffffffffffffffffffffffffffffffffffffffffffffffffffffffffff03821115610cad57610cac610df1565b5b828201905092915050565b6000610cc382610d2a565b9150610cce83610d2a565b925082821015610ce157610ce0610df1565b5b828203905092915050565b6000610cf782610d0a565b9050919050565b60008115159050919050565b600073ffffffffffffffffffffffffffffffffffffffff82169050919050565b6000819050919050565b82818337600083830152505050565b60005b83811015610d61578082015181840152602081019050610d46565b83811115610d70576000848401525b50505050565b60006002820490506001821680610d8e57607f821691505b60208210811415610da257610da1610e20565b5b50919050565b6000610db382610d2a565b91507fffffffffffffffffffffffffffffffffffffffffffffffffffffffffffffffff821415610de657610de5610df1565b5b600182019050919050565b7f4e487b7100000000000000000000000000000000000000000000000000000000600052601160045260246000fd5b7f4e487b7100000000000000000000000000000000000000000000000000000000600052602260045260246000fd5b6000601f19601f8301169050919050565b610e6981610cec565b8114610e7457600080fd5b50565b610e8081610d2a565b8114610e8b57600080fd5b5056fea26469706673582212205233e85a74b77c20120a03c74508ef92c7e44fa003aa2d758a0f47cc8545f61664736f6c63430008000033",
  "immutableReferences": {},
  "source": "// SPDX-License-Identifier: UNLICENSED\r\npragma solidity ^0.8.0;\r\n\r\ncontract InstitutionRegistry {\r\n    // Mapping to check if an institution is registered\r\n    mapping(address => bool) public isInstitutionRegistered;\r\n    event InstitutionRegisterEvent(address institutionAddress, string name);\r\n    struct Institution {\r\n        address institutionAddress;\r\n        string name;\r\n    }\r\n    // Array to store all the registered institutions\r\n    Institution[] public registeredInstitutionList;\r\n\r\n    function registerInstitution(string calldata name) public {\r\n        // Check if the institution is already registered\r\n        require(\r\n            !isInstitutionRegistered[msg.sender],\r\n            \"___Institution is already registered___\"\r\n        );\r\n        // Add the institution to the mapping and add the address to the array\r\n        isInstitutionRegistered[msg.sender] = true;\r\n        Institution memory newInstitution = Institution(msg.sender, name);\r\n        registeredInstitutionList.push(newInstitution);\r\n        //inform the server to add the institution to the database\r\n        emit InstitutionRegisterEvent(msg.sender, name);\r\n    }\r\n\r\n    function getAllInstitutions(\r\n        uint from,\r\n        uint to\r\n    ) external view returns (Institution[] memory) {\r\n        require(from >= 0 && to > from, \"___Invalid Paramaters___\");\r\n        uint amount = to - from;\r\n        //if amount is greater than the length of the array, return the whole array\r\n        if (amount > registeredInstitutionList.length) {\r\n            amount = registeredInstitutionList.length;\r\n        }\r\n        Institution[] memory institutions = new Institution[](amount);\r\n\r\n        for (uint i = 0; i < amount; i++) {\r\n            institutions[i] = registeredInstitutionList[from + i];\r\n        }\r\n        return institutions;\r\n    }\r\n}\r\n",
  "sourcePath": "C:\\Users\\98611\\Desktop\\test\\credit-transfer-dapp\\contracts\\contracts\\InstitutionRegistry.sol",
  "compiler": {
    "name": "solc",
    "version": "0.8.0+commit.c7dfd78e.Emscripten.clang"
  },
  "schemaVersion": "3.4.14",
  "updatedAt": "2023-07-19T18:42:27.252Z",
  "networkType": "ethereum",
  "devdoc": {
    "kind": "dev",
    "methods": {},
    "version": 1
  },
  "userdoc": {
    "kind": "user",
    "methods": {},
    "version": 1
  }
}